:060000000A128A11122809
:10000800FE00030E83120313E0000408E1000A084F
:10001800E2007F08E3000A128A150B2E0A128A15DD
:10002800F02D5E29603084000A128A1163230A12B7
:100038008A110A128A159F250A128A115C308400D7
:100048000A128A1163230A128A110A128A159F2535
:100058000A128A115D3084000A128A1163230A1277
:100068008A110A128A159F250A128A11832960307B
:1000780084000A128A1163230A128A110A128A1545
:100088009F250A128A11573084000A128A116323A5
:100098000A128A110A128A159F250A128A118329BF
:1000A800603084000A128A1163230A128A110A1224
:1000B8008A159F250A128A11583084000A128A115B
:1000C80063230A128A110A128A159F250A128A11B5
:1000D8008329603084000A128A1163230A128A1164
:1000E8000A128A159F250A128A114B3084000A12B7
:1000F8008A1163230A128A110A128A159F250A1285
:100108008A114C3084000A128A1163230A128A1158
:100118000A128A159F250A128A11832960308400E1
:100128000A128A1163230A128A110A128A159F2554
:100138000A128A11473084000A128A1163230A12AC
:100148008A110A128A159F250A128A11832960309A
:1001580084000A128A1163230A128A110A128A1564
:100168009F250A128A11483084000A128A116323D3
:100178000A128A110A128A159F250A128A118329DE
:1001880052300A128A159F250A128A1154300A120F
:100198008A159F250A128A1143300A128A159F254B
:1001A8000A128A118329603084000A128A11632393
:1001B8000A128A110A128A159F250A128A115C30BE
:1001C80084000A128A1163230A128A110A128A15F4
:1001D8009F250A128A115D3084000A128A1163234E
:1001E8000A128A110A128A159F250A128A11573093
:1001F80084000A128A1163230A128A110A128A15C4
:100208009F250A128A11583084000A128A11632322
:100218000A128A110A128A159F250A128A114B306E
:1002280084000A128A1163230A128A110A128A1593
:100238009F250A128A114C3084000A128A116323FE
:100248000A128A110A128A159F250A128A11473042
:1002580084000A128A1163230A128A110A128A1563
:100268009F250A128A11483084000A128A116323D2
:100278000A128A110A128A159F250A128A11523007
:100288000A128A159F250A128A1154300A128A15F1
:100298009F250A128A1143300A128A159F250A12CD
:1002A8008A11832962300A128A158A270A128A114A
:1002B80083298329423084000A128A1163230A128F
:1002C8008A110A128A1528260A128A11003A031975
:1002D8001628013A03193B28033A03195428013A0E
:1002E80003196D28073A03199228013A0319AB2814
:1002F800033A0319C428013A0319D72856290800D4
:1003080083120313A900A601A7010A128A15BC26A5
:100318000A128A1173087204031993299429BE2AB0
:100328000A128A156C260A128A11730872040319B4
:100338009E299F29BE2A831203132908013E84009F
:1003480083130008A2002208FB0029088400000883
:100358000A128A1547260A128A1183120313A30068
:100368002308F800543084000A128A1163230A1201
:100378008A110A128A15EB260A128A1183120313AC
:100388002908033E840083130008A2002208FB000A
:100398002908023E840000080A128A1547260A1214
:1003A8008A1183120313A3002308F8005330840032
:1003B8000A128A1163230A128A110A128A15EB2675
:1003C8000A128A11831203132908053E8400831335
:1003D8000008A2002208FB002908043E8400000847
:1003E8000A128A1547260A128A1183120313A300D8
:1003F8002308F800423084000A128A1163230A1283
:100408008A110A128A15EB260A128A11831203131B
:100418002908073E840083130008A2002208FB0075
:100428002908063E840000080A128A1547260A127F
:100438008A1183120313A3002308F8004D308400A7
:100448000A128A1163230A128A110A128A15EB26E4
:100458000A128A11831203132908F0000030F100F0
:100468000A128A1550270A128A117008FF3E831251
:1004780003132907A2002208840083130008A3009D
:100488002308FB002908F0000030F1000A128A1541
:1004980050270A128A117008FE3E83120313290797
:1004A800A40024088400831300080A128A1547262A
:1004B8000A128A1183120313A5002508F800433095
:1004C80084000A128A1163230A128A110A128A15F1
:1004D800EB260A128A1183120313A801A92A2608F7
:1004E800093E2907A2002208840083130008A300FC
:1004F8002308FB002608083E2907A40024088400D6
:1005080000080A128A1547260A128A118312031351
:10051800A5002508F800443084000A128A116323D4
:100528000A128A1128070A128A15EB260A128A115A
:10053800023083120313A6070318A70A0030A7077F
:100548000130A2002208A807A92A4D3084000A1207
:100558008A1163230A128A110A128A1528260A1296
:100568008A11831203132802031CBB2ABC2A732A8C
:10057800BE2ABE2A08004D3084000A128A1163235D
:100588000A128A110A128A1528260A128A110038B4
:10059800031DCF2AD02A032B513084000A128A1156
:1005A80063230A128A11F400F501F409F509F40A23
:1005B8000319F50A403084000A128A1163230A12CB
:1005C8008A110A128A1528260A128A117407F60057
:1005D80075080318750AF70077087604031DF52ACD
:1005E800F62A032B44300A128A159F250A128A110B
:1005F8000130F2000030F300582B582B4F2B4D30B0
:1006080084000A128A1163230A128A110A128A15AF
:1006180028260A128A11F400F5010130FF000310A0
:10062800F40DF50DFF0B132B513084000A128A11BB
:1006380063230A128A11F600F701F609F709F60A88
:100648000319F70A403084000A128A1163230A1238
:100658008A110A128A1528260A128A117607F800C2
:1006680077080318770AF90075087906031D3E2BE9
:1006780074087806031D412B422B4F2B44300A1275
:100688008A159F250A128A110130F2000030F30002
:10069800582B582B4F2B4E300A128A159F250A12B9
:1006A8008A11F201F301582B0800FF1B632B8313F7
:1006B8007F1883170008840A0319FF0A080003300B
:1006C8008A000408840A8207003444346534653497
:1006D800703461346B3420344334683461346E349C
:1006E800643472346134733465346B346134723415
:1006F80000344134703475347234763465342034BF
:1007080042346834693464346534003447347234AC
:100718006534673420344734693472346134723450
:1007280064340034463461346C346C3420343234EC
:10073800303431343334003445344334453435347B
:100748003634323430340034003430340334053431
:100758000734063432348434863450340A348034CE
:10076800823404340E340A340A340A34003402342D
:10077800013400341034623464346434A034663490
:1007880060346134FF340A34AA3401344E346F348F
:100798007434203461342034763461346C346934F0
:1007A80064342034723465346134643420346334FE
:1007B8006F346D346D3461346E3464340034F80150
:1007C800413084000A128A1163230A128A110A121C
:1007D8008A15EB260A128A112E3084009030831273
:1007E8000313AA000408AB003230AC002A088400C6
:1007F80083170008AD00AA0A2B08840083132D086C
:100808008000AB0AAC0BFA2B2E300A128A1158263C
:100818000A128A11403084000A128A1163230A12CC
:100828008A110A128A1528260A128A110A128A15AA
:100838009F250A128A112E300A128A1184210A125F
:100848008A110A128A11B3260A128A118312031313
:10085800230822040319312C322C512C53308400E4
:100868000A128A1163230A128A110A128A15282683
:100878000A128A110038031D422C432C492C0A12F3
:100888008A1115200A128A11512C0A128A11FF277F
:100898000A128A11512C512C512C08004130840025
:1008A8000A128A1163230A128A110A128A15282643
:1008B8000A128A11FB004D3084000A128A11632340
:1008C8000A128A110A128A1528260A128A117B0727
:1008D800FC007C08F800413084000A128A11632366
:1008E8000A128A110A128A15EB260A128A11FD01C8
:1008F800AC2C413084000A128A1163230A128A112F
:100908000A128A1528260A128A11FB00443084002C
:100918000A128A1163230A128A117D070A128A159C
:1009280028260A128A117B07FC007C08F80041304F
:1009380084000A128A1163230A128A110A128A157C
:10094800EB260A128A110130FB007B08FD07AC2C4C
:100958004D3084000A128A1163230A128A110A127E
:100968008A1528260A128A117D02031CBC2CBD2C6C
:100978007D2CBE2C0800423084000A128A116323A1
:100988000A128A110A128A1528260A128A11423076
:1009980084000A128A1163230A128A110A128A151C
:1009A80028260A128A1183120313A0004E308400ED
:1009B8000A128A1163230A128A11A100200821024F
:1009C800031CE72CE82C212D413084000A128A11DF
:1009D80063230A128A110A128A1528260A128A1112
:1009E80083120313A000423084000A128A11632381
:1009F8000A128A110A128A1528260A128A118312E3
:100A080003132007A1002108F800413084000A12CE
:100A18008A1163230A128A110A128A15EB260A120E
:100A28008A1143300A128A159F250A128A11013049
:100A3800FB000030FC002A2D2A2D4E300A128A15A0
:100A48009F250A128A11FB01FC012A2D0800831632
:100A58000313A0015C3084000A128A1163230A126E
:100A68008A110A128A15C5270A128A1183160313D6
:100A7800A0015D3084000A128A1163230A128A11C8
:100A88000A128A15C5270A128A11593084000A12D7
:100A98008A1163230A128A1183160313A3002308F9
:100AA800A000573084000A128A1163230A128A119F
:100AB8000A128A15C5270A128A115A3084000A12A6
:100AC8008A1163230A128A1183160313A3002308C9
:100AD800A000583084000A128A1163230A128A116E
:100AE8000A128A15C5270A128A11553084000A127B
:100AF8008A1163230A128A1183160313A300230899
:100B0800A0005B3084000A128A1163230A128A113A
:100B18000A128A15C5270A128A1108005330840060
:100B28000A128A1163230A128A110A128A152826C0
:100B38000A128A11003A0319A22DA32DB52D53309C
:100B480084000A128A1163230A128A110A128A156A
:100B580028260A128A11013A031DB32DB42DEE2D51
:100B6800B52D52300A128A159F250A128A11413072
:100B780084000A128A1163230A128A110A128A153A
:100B880028260A128A1183120313A0005330840006
:100B98000A128A1163230A128A110A128A15282650
:100BA8000A128A11831203132007A1002108F800F2
:100BB800413084000A128A1163230A128A110A1228
:100BC8008A15EB260A128A110130FB000030FC005E
:100BD800F72DF72D4E300A128A159F250A128A1111
:100BE800FB01FC01F72D0800603084000A128A110D
:100BF80063230A128A1183120313A000543084005D
:100C08000A128A1163230A128A110A128A152826DF
:100C18000A128A11831203132006031D142E152E9F
:100C28004E2E53300A128A159F250A128A11413016
:100C380084000A128A1163230A128A110A128A1579
:100C480028260A128A1183120313A0005430840044
:100C58000A128A1163230A128A110A128A1528268F
:100C68000A128A11831203132007A1002108F80031
:100C7800413084000A128A1163230A128A110A1267
:100C88008A15EB260A128A110130FB000030FC009D
:100C9800572E572E4E300A128A159F250A128A118E
:100CA800FB01FC01572E080083120313A000A101C9
:100CB800A2010A128A1589250A128A11FB007B08EB
:100CC80083120313A30023080A128A159F250A1208
:100CD8008A11912E831203132308FB002108200791
:100CE800FC007C0884007B08831380000130A10786
:100CF8000318A20A0030A2070A128A1589250A12C7
:100D08008A11FB007B0883120313A30023080A122D
:100D18008A159F250A128A11912E5F3084000A12C3
:100D28008A1163230A128A11FB0083120313230812
:100D38007B06031DA02EA12E6E2EA22E2108FB00DD
:100D48007B08F800403084000A128A1163230A12D3
:100D58008A110A128A15EB260A128A1108000A1249
:100D68008A11F8250A128A117C087B040319BD2E02
:100D7800BE2EF82E0A128A1192250A128A117C08B0
:100D88007B040319C82EC92EF82E0A128A11BF2413
:100D98000A128A117C087B040319D32ED42EF82E4C
:100DA8000A128A11BF220A128A11730872040319DF
:100DB800DE2EDF2EF82E0A128A1152240A128A1108
:100DC8000A128A151C270A128A1173087204031959
:100DD800EE2EEF2EF82E013083120313A2000030FE
:100DE800A300FD2EFD2EF82E83120313A201A301EA
:100DF800FD2E0800B0308400B93083160313AC0010
:100E08000408AD000930AE002C08840083130008E4
:100E1800AF00AC0A2D0884002F088000AD0AAE0B85
:100E2800082F0A128A15CB250A128A110A128A1566
:100E380094250A128A110A128A112B250A128A117C
:100E4800B03083160313A8000030A9000A128A11D3
:100E580089270A128A11302F0A128A11C9270A1201
:100E68008A11413083160313AD00EE30AC00AC0B91
:100E78003B2FAD0B3B2F6400302F302F0A128A1105
:100E88001228831603132108A701A7072008A60123
:100E9800A6074F2F4F2F831603132708A3002608F2
:100EA800A2000130A6070318A70A23088312031318
:100EB800FF008316031322088400831203130A1207
:100EC8008A1159230A128A110038031D6C2F6D2FBD
:100ED8004F2F6E2F831603132009A2002109A300A8
:100EE800A20A0319A30A26082207A4002708031840
:100EF800270A2307A5002408FF3EA0002508031899
:100F0800013EFF3EA100882F080083160313AA01A3
:100F1800AB01AA2F2A082807840029080318290AE0
:100F280083120313FF000A128A1159230A128A1125
:100F38000A128A15BA250A128A1101308316031378
:100F4800AA070318AB0A0030AB07AA2F2908A1018A
:100F5800A1072808A001A0070A128A1145270A122A
:100F68008A118316031321082B02031DBD2F2008A5
:100F78002A02031CC02FC12F8E2FC22F2A080A1243
:100F88008A15BA250A128A1108000A128A157325C9
:100F98000A128A110A128A1593260A128A118316CE
:100FA80003132108A601A6072008A501A5072508FF
:100FB800A4002408A0005D3084000A128A1163236B
:100FC8000A128A110A128A15C5270A128A1183166B
:100FD80003132608A4002408A0005C3084000A1229
:100FE8008A1163230A128A11013E0A128A15C5273B
:080FF8000A128A11080008002A
:101AE6008030831203139F00080064008001840A7B
:101AF6000406031900340406792D573465346C3412
:101B060063346F346D3465340A3400348A2D83129D
:101B160003138C1E8F2D902D8A2D912D1A08932D2F
:101B26000800033083160313850080309F00803041
:101B3600831203139F000800F000A12D83120313E4
:101B46000C1EA62DA72DA12DA82D70089900080002
:101B5600F00041307002031CB12DB22DB62D700875
:101B6600C93EB92DB92D7008D03EB92D080083168F
:101B76000313A000BE2D83120C1EC22DC32DBE2D35
:101B8600C42D83160313200883120313990008003B
:101B960083160313071387179030831203139800D5
:101BA6002430831603139800813099008B170B1786
:101BB6008C1608007E088A007F0882000A128A15A1
:101BC600DD250A128A158000840A04087D06031999
:101BD6000034FF0A0319FE0AE12D831790308400B2
:101BE600C2300A128A1578250A128A158313C23062
:101BF600FD000D30FE008030FF00B93084000A126F
:101C06008A15E1250A128A1583010A128A11FE2E07
:101C16008C1E0E2E0F2E1B2E831603138C1E142EB7
:101C2600152E1B2E0A128A11E3230A128A151B2E61
:101C3600831203136308FF0062088A0061088400A8
:101C4600600E8300FE0E7E0E0900F100640083160E
:101C560003178C182F2E302E292E312E7108831241
:101C660003178D003F30F0007008831603178C05AC
:101C76000C1403100C1803140030031801308312DF
:101C860003170C08462E080083120313A000200831
:101C96000A128A15AB250A128A15FC0003300310B6
:101CA600FC0DFF3E031D522E03107C0DFD007D082A
:101CB60083120313A1007B080A128A15AB250A12A8
:101CC6008A15FC007C0883120313A10421086B2EDD
:101CD6000800403084000A128A1163230A128A150A
:101CE6000A128A1528260A128A15F40074187C2E00
:101CF6007D2E892E45300A128A159F250A128A15CD
:101D06000130F2000030F300922E922E4E300A126D
:101D16008A159F250A128A15F201F301922E0800F0
:101D2600831203131F14413083160313A300EE30EE
:101D3600A200A20B9C2EA30B9C2E640083120313FD
:101D46001F15A52E1F19A82EA92EA52EAA2E1E08D0
:101D560083160313A200A3012208A300A2011E08F2
:101D66002207A0000030031801302307A100BB2E74
:101D76000800403084000A128A1163230A128A1569
:101D86000A128A1528260A128A15F4004F30840092
:101D96000A128A1163230A128A157402031CD42EAE
:101DA600D52EE12E4C300A128A159F250A128A1565
:101DB6000130F2000030F300EA2EEA2E4E300A120D
:101DC6008A159F250A128A15F201F301EA2E0800E8
:101DD600FA00ED2E831603178C18F22EF32EED2E35
:101DE600F42E7A08831203178D0078088C003F3092
:101DF600F9007908831603178C0583120313031061
:101E06008B1F062F072F082F03148B138316031718
:101E16000C1555308D00AA308D008C140C118312D0
:101E26000313031C172F182F1B2F8B171B2F1B2F6A
:101E36000800413084000A128A1163230A128A15A7
:101E46000A128A1528260A128A15F40043308400DD
:101E56000A128A1163230A128A150A128A1528267B
:101E66000A128A157406031D392F3A2F462F593048
:101E76000A128A159F250A128A150130F2000030CF
:101E8600F3004F2F4F2F4E300A128A159F250A1244
:101E96008A15F201F3014F2F08007108F701F707C1
:101EA6007008F601F607582F582F7708F3007608C2
:101EB600F2000130F6070318F70A730883120313BA
:101EC600FF00720884000A128A1159230A128A1521
:101ED6000038031D6F2F702F582F712F7009F200D5
:101EE6007109F300F20A0319F30A76087207F4007F
:101EF60077080318770A7307F5007408FF3EF000A9
:101F060075080318013EFF3EF100892F0800F8000E
:101F1600F901FA01A82F79087807840079080318CF
:101F2600790A83120313FF000A128A1159230A122F
:101F36008A150A128A159F250A128A150130F90791
:101F46000318FA0A0030FA07A82F7908F101F107F9
:101F56007808F001F0070A128A1550270A128A1526
:101F660071087A02031DB92F70087902031CBC2F71
:101F7600BD2F8E2FBE2F79080A128A159F250A12A9
:101F86008A15080083160313A200C92F83160317A8
:101F96008C18CE2FCF2FC92FD02F831603132208CC
:101FA600831203178D008316031320088312031769
:101FB6008C003F3083160313A100210883160317F4
:101FC6008C058312031303108B1FEA2FEB2FEC2FC4
:101FD60003148B13831603170C1555308D00AA3086
:101FE6008D008C140C1183120313031CFB2FFC2F82
:0A1FF600FF2F8B17FF2FFF2F0800AD
:02400E003AFF77
:00000001FF
