:060000000A128A11122809
:10000800FE00030E83120313CE000408CF000A0873
:10001800D0007F08D1000A128A15B82E0A128A1158
:10002800E52C6A29603084000A128A1100250A1218
:100038008A110A128A15CD250A128A115C308400A9
:100048000A128A1100250A128A110A128A15CD2568
:100058000A128A115D3084000A128A1100250A12D8
:100068008A110A128A15CD250A128A118F29603041
:1000780084000A128A1100250A128A110A128A15A6
:10008800CD250A128A11573084000A128A110025D8
:100098000A128A110A128A15CD250A128A118F2985
:1000A800603084000A128A1100250A128A110A1285
:1000B8008A15CD250A128A11583084000A128A112D
:1000C80000250A128A110A128A15CD250A128A11E8
:1000D8008F29603084000A128A1100250A128A11B9
:1000E8000A128A15CD250A128A114B3084000A1289
:1000F8008A1100250A128A110A128A15CD250A12B8
:100108008A114C3084000A128A1100250A128A11B9
:100118000A128A15CD250A128A118F2960308400A7
:100128000A128A1100250A128A110A128A15CD2587
:100138000A128A11473084000A128A1100250A120D
:100148008A110A128A15CD250A128A118F29603060
:1001580084000A128A1100250A128A110A128A15C5
:10016800CD250A128A11483084000A128A11002506
:100178000A128A110A128A15CD250A128A118F29A4
:10018800603084000A128A1100250A128A110A12A4
:100198008A15CD250A128A1152300A128A15CD25E0
:1001A8000A128A1154300A128A15CD250A128A11A8
:1001B80043300A128A15CD250A128A118F29603018
:1001C80084000A128A1100250A128A110A128A1555
:1001D800CD250A128A115C3084000A128A11002582
:1001E8000A128A110A128A15CD250A128A115D305F
:1001F80084000A128A1100250A128A110A128A1525
:10020800CD250A128A11573084000A128A11002556
:100218000A128A110A128A15CD250A128A11583033
:1002280084000A128A1100250A128A110A128A15F4
:10023800CD250A128A114B3084000A128A11002532
:100248000A128A110A128A15CD250A128A114C300F
:1002580084000A128A1100250A128A110A128A15C4
:10026800CD250A128A11473084000A128A11002506
:100278000A128A110A128A15CD250A128A114830E3
:1002880084000A128A1100250A128A110A128A1594
:10029800CD250A128A1152300A128A15CD250A1262
:1002A8008A1154300A128A15CD250A128A11433050
:1002B8000A128A15CD250A128A118F2929300A12A5
:1002C8008A11D0270A128A118F298F294230840077
:1002D8000A128A1100250A128A110A128A152B2677
:1002E8000A128A11003A03191628013A03193B2801
:1002F800033A03195428013A03196D28073A0319D8
:100308009228013A0319AB28033A0319C428013A81
:100318000319E3286229080083120313CD00CA01D8
:10032800CB010A128A1508270A128A117308720467
:1003380003199F29A029C42A0A128A1591260A128C
:100348008A11730872040319AA29AB29C42A8312D3
:1003580003134D08013E840083130008C6004608B5
:10036800FD004D08840000080A128A156C260A123E
:100378008A1183120313C7004708FA005430840017
:100388000A128A1100250A128A110A128A153727B9
:100398000A128A11831203134D08033E8400831343
:1003A8000008C6004608FD004D08023E840000080B
:1003B8000A128A156C260A128A1183120313C700BF
:1003C8004708FA00533084000A128A1100250A12DD
:1003D8008A110A128A1537270A128A1183120313FF
:1003E8004D08053E840083130008C6004608FD003A
:1003F8004D08043E840000080A128A156C260A1269
:100408008A1183120313C7004708FA004230840098
:100418000A128A1100250A128A110A128A15372728
:100428000A128A11831203134D08073E84008313AE
:100438000008C6004608FD004D08063E8400000876
:100448000A128A156C260A128A1183120313C7002E
:100458004708FA004D3084000A128A1100250A1252
:100468008A110A128A1537270A128A11831203136E
:100478004D080A128A1568270A128A117008FF3E69
:10048800831203134D07C60046088400831300082F
:10049800C7004708FD004D080A128A1568270A1286
:1004A8008A117008FE3E831203134D07C8004808DE
:1004B8008400831300080A128A156C260A128A110E
:1004C80083120313C9004908FA00433084000A1252
:1004D8008A1100250A128A110A128A1537270A1268
:1004E8008A1183120313CC01AF2A4A08093E4D072B
:1004F800C6004608840083130008C7004708FD00AB
:100508004A08083E4D07C8004808840000080A1237
:100518008A156C260A128A1183120313C900490826
:10052800FA00443084000A128A1100250A128A113E
:100538004C070A128A1537270A128A1102308312C9
:100548000313CA070318CB0A0030CB070130C600D3
:100558004608CC07AF2A4D3084000A128A110025BC
:100568000A128A110A128A152B260A128A11831274
:1005780003134C02031CC12AC22A792AC42AC42A9A
:1005880008004D3084000A128A1100250A128A11C7
:100598000A128A152B260A128A110038031DD52A39
:1005A800D62A092B513084000A128A1100250A1212
:1005B8008A11F400F501F409F509F40A0319F50A9A
:1005C800403084000A128A1100250A128A110A1280
:1005D8008A152B260A128A117407F6007508031863
:1005E800750AF70077087604031DFB2AFC2A092BF5
:1005F80044300A128A15CD250A128A110130F200F8
:100608000030F3005E2B5E2B552B4D3084000A1210
:100618008A1100250A128A110A128A152B260A1233
:100628008A11F400F5010130FF000310F40DF50DF7
:10063800FF0B192B513084000A128A1100250A1267
:100648008A11F600F701F609F709F60A0319F70AFD
:10065800403084000A128A1100250A128A110A12EF
:100668008A152B260A128A117607F80077080318CC
:10067800770AF90075087906031D442B7408780673
:10068800031D472B482B552B44300A128A15CD25BC
:100698000A128A110130F2000030F3005E2B5E2B43
:1006A800552B4E300A128A15CD250A128A11F201ED
:1006B800F3015E2B0800413084000A128A110025DC
:1006C8000A128A110A128A152B260A128A11831213
:1006D8000313C2004D3084000A128A1100250A1241
:1006E8008A110A128A152B260A128A1183120313F9
:1006F8004207C3004308FA00413084000A128A11F5
:1007080000250A128A110A128A1537270A128A1135
:10071800FD01C32B413084000A128A1100250A12F8
:100728008A110A128A152B260A128A1183120313B8
:10073800C200443084000A128A1100250A128A1164
:100748007D070A128A152B260A128A1183120313AF
:100758004207C3004308FA00413084000A128A1194
:1007680000250A128A110A128A1537270A128A11D5
:10077800013083120313C2004208FD07C32B4D301A
:1007880084000A128A1100250A128A110A128A158F
:100798002B260A128A117D02031CD32BD42B8E2BF5
:1007A800D52B0800423084000A128A1100250A124B
:1007B8008A110A128A152B260A128A1142308400DD
:1007C8000A128A1100250A128A110A128A152B2682
:1007D8000A128A1183120313C4004E3084000A12CD
:1007E8008A1100250A128A11C50044084502031C13
:1007F800FE2BFF2B3A2C413084000A128A11002567
:100808000A128A110A128A152B260A128A118312D1
:100818000313C400423084000A128A1100250A1208
:100828008A110A128A152B260A128A1183120313B7
:100838004407C5004508FA00413084000A128A11AD
:1008480000250A128A110A128A1537270A128A11F4
:1008580043300A128A15CD250A128A1101308312F3
:100868000313C2000030C300452C452C4E300A1239
:100878008A15CD250A128A1183120313C201C301F6
:10088800452C0800533084000A128A1100250A12E8
:100898008A110A128A152B260A128A11003A03199C
:1008A800562C572C692C533084000A128A110025C3
:1008B8000A128A110A128A152B260A128A11013A7B
:1008C800031D672C682CA42C692C52300A128A1537
:1008D800CD250A128A11413084000A128A11002596
:1008E8000A128A110A128A152B260A128A118312F1
:1008F8000313C400533084000A128A1100250A1217
:100908008A110A128A152B260A128A1183120313D6
:100918004407C5004508FA00413084000A128A11CC
:1009280000250A128A110A128A1537270A128A1113
:10093800013083120313C2000030C300AF2CAF2C68
:100948004E300A128A15CD250A128A118312031312
:10095800C201C301AF2C080083120313DD00DE01BE
:10096800DF01CB2C5E085D07DC005C088400831384
:1009780000080A128A15D9250A128A110130831231
:100988000313DE070318DF0A0030DF07CB2C5D08EE
:100998000A128A1599270A128A1183120313530817
:1009A8005F02031DD92C52085E02031CDC2CDD2CCF
:1009B800B62CDE2C5E080A128A15D9250A128A116D
:1009C80008008313A0308400D2300A128A15BA2591
:1009D8000A128A114230FD000E30FE004A30FF0034
:1009E800203084000A128A151C260A128A118301F3
:0609F8000A128A11192FFA
:100A000005308A000408840A8207003444346534BF
:100A10006534703461346B34203443346834613469
:100A20006E34643472346134733465346B346134DD
:100A30007234003441347034753472347634653431
:100A400020344234683469346434653400344734C3
:100A50007234653467342034473469347234613415
:100A6000723464340034463461346C346C34203471
:100A70003234303431343334003445344334453443
:100A800035343634323430340034003430340334C6
:100A900005340734063432348434863450340A340E
:100AA0008034823404340E340A340A340A34003474
:100AB0000234013400341034623464346434A034B9
:100AC000663460346134FF340A34AA34013483124A
:100AD0000313D2015C3084000A128A1100250A1225
:100AE0008A110A128A115F270A128A1183120313CC
:100AF000D2015D3084000A128A1100250A128A117F
:100B00000A128A115F270A128A11593084000A12C8
:100B10008A1100250A128A1183120313D500550881
:100B2000D200573084000A128A1100250A128A1155
:100B30000A128A115F270A128A115A3084000A1297
:100B40008A1100250A128A1183120313D500550851
:100B5000D200583084000A128A1100250A128A1124
:100B60000A128A115F270A128A11553084000A126C
:100B70008A1100250A128A1183120313D500550821
:100B8000D2005B3084000A128A1100250A128A11F1
:100B90000A128A115F270A128A1108006030840045
:100BA0000A128A1100250A128A1183120313C40043
:100BB000543084000A128A1100250A128A110A127E
:100BC0008A152B260A128A11831203134406031D69
:100BD000EA2DEB2D262E53300A128A15CD250A1246
:100BE0008A11413084000A128A1100250A128A11E2
:100BF0000A128A152B260A128A1183120313C400C3
:100C0000543084000A128A1100250A128A110A122D
:100C10008A152B260A128A11831203134407C50072
:100C20004508FA00413084000A128A1100250A1290
:100C30008A110A128A1537270A128A110130831283
:100C40000313C2000030C300312E312E4E300A1281
:100C50008A15CD250A128A1183120313C201C3011A
:100C6000312E08000A128A11CE250A128A11831227
:100C700003134308420403193E2E3F2E7D2E0A1211
:100C80008A1146240A128A1183120313430842046C
:100C900003194B2E4C2E7D2E0A128A11D6230A12CE
:100CA0008A1183120313430842040319582E592E44
:100CB0007D2E0A128A11C5220A128A117308720443
:100CC0000319632E642E7D2E0A128A115F230A12E5
:100CD0008A110A128A15CC270A128A117308720423
:100CE0000319732E742E7D2E013083120313C60058
:100CF0000030C700822E822E7D2E83120313C60180
:100D0000C701822E0800A0300A128A11CE260A12CC
:100D10008A11831203131812FA01413084000A1257
:100D20008A1100250A128A110A128A1537270A1217
:100D30008A11A0300A128A1190210A128A110A120D
:100D40008A1132260A128A118312031347084604B5
:100D50000319AB2EAC2ECA2E533084000A128A110E
:100D600000250A128A110A128A152B260A128A11E4
:100D70000038031DBC2EBD2EC32E0A128A11152069
:100D80000A128A11CA2E0A128A11FF270A128A1120
:100D9000CA2ECA2E831203131816080083120313D7
:100DA000C400C501C6010A128A15F4250A128A1167
:100DB00083120313C2004208C700F92E4708C2007D
:100DC00045084407C3004308840042088313800099
:100DD0000130C5070318C60A0030C6070A128A1573
:100DE000F4250A128A1183120313C2004208C700B5
:100DF000F92E5F3084000A128A1100250A128A1126
:100E0000C20047084206031D062F072FDE2E082FBB
:100E10004508C2004208FA00403084000A128A11D4
:100E200000250A128A110A128A1537270A128A1116
:100E30000800D6308400203083160313D200040843
:100E4000D3000930D4005208840083130008D50071
:100E5000D20A5308840055088000D30AD40B232FEC
:100E600086018312031386140A128A15C2250A12F8
:100E70008A110A128A1167250A128A110A128A1522
:100E800006260A128A11D6300A128A11B0240A12D2
:100E90008A114A2F0A128A119A270A128A1141309E
:100EA00083160313D300EE30D200D20B552FD30B91
:100EB000552F64004A2F4A2F0A128A1112288312D2
:100EC0000313D400632F831603178C18682F692F20
:100ED000632F6A2F831203135408831203178D00A4
:100EE000831203135208831203178C003F308312BE
:100EF0000313D3005308831603178C0583120313BF
:100F000003108B1F842F852F862F03148B138316BA
:100F100003170C1555308D00AA308D008C140C1160
:100F200083120313031C952F962F992F8B17992F3C
:100F3000992F08000A128A15B5250A128A110A1279
:100F40008A15DF260A128A11831203135308D80167
:100F5000D8075208D701D7075708D6005608D2003D
:100F60005D3084000A128A1100250A128A110A12C1
:100F70008A115F270A128A11831203135808D600B8
:100F80005608D2005C3084000A128A1100250A1229
:100F90008A11013E0A128A115F270A128A1108007B
:100FA000FB00FC01FD01E72F7C087B07FA007A08B3
:100FB0008400831300080A128A15CD250A128A11AB
:100FC0000130FC070318FD0A0030FD07E72F7B08FE
:100FD0000A128A1568270A128A1171087D02031DF8
:100FE000F32F70087C02031CF62FF72FD42FF82F55
:100FF0007C080A128A15CD250A128A1108000800F9
:101B6A008030831203139F00080064008001840AF6
:101B7A000406031900340406BB2D0330831603132D
:101B8A00850080309F008030831203139F00080075
:101B9A00F000CF2D831203130C1ED42DD52DCF2D7B
:101BAA00D62D70089900080083120313D200DD2D88
:101BBA000C1EE02DE12DDD2DE22D520899000800C2
:101BCA00F00041307002031CEB2DEC2DF02D700853
:101BDA00C93EF32DF32D7008D03EF32D0800FC2DDD
:101BEA00981CF82DF92DFC2D18121816FC2D8312AD
:101BFA0003138C1E012E022EF52D032E1A08052E14
:101C0A0008008316031307138717903083120313F0
:101C1A0098002430831603139800813099008B179B
:101C2A000B178C1608007E088A007F0882000A12A9
:101C3A008A1518260A128A158000840A04087D0665
:101C4A0003190034FF0A0319FE0A1C2EF10064006E
:101C5A00831603178C18322E332E2C2E342E71082D
:101C6A00831203178D003F30F000700883160317A4
:101C7A008C050C1403100C180314003003180130DF
:101C8A00831203170C08492E0800573465346C3444
:101C9A0063346F346D3465340A3400344E346F342F
:101CAA007434203461342034763461346C346934C9
:101CBA0064342034723465346134643420346334D7
:101CCA006F346D346D3461346E346434003483128D
:101CDA000313C40044080A128A15E5250A128A1554
:101CEA0083120313C20003300310C20DFF3E031D0B
:101CFA00792E0310420DC3004308C5007D080A125D
:101D0A008A15E5250A128A1583120313C2004208AE
:101D1A00C5044508902E0800403084000A128A1132
:101D2A0000250A128A150A128A152B260A128A1502
:101D3A00F4007418A12EA22EAE2E45300A128A156E
:101D4A00CD250A128A150130F2000030F300B72EB1
:101D5A00B72E4E300A128A15CD250A128A15F201BB
:101D6A00F301B72E08008C1EBB2EBC2ED22E831672
:101D7A0003138C1EC12EC22ED22E83120313981C5B
:101D8A00C72EC82ECB2E18121816D22E0A128A1156
:101D9A0083260A128A15D22ED22E831203135108D1
:101DAA00FF0050088A004F0884004E0E8300FE0E82
:101DBA007E0E0900831203131F144130D500EE3042
:101DCA00D400D40BE62ED50BE62E6400831203133F
:101DDA001F15EF2E1F19F22EF32EEF2EF42E1E08CA
:101DEA00D400D5015408D500D401831603131E0864
:101DFA00831203135407D200003003180130550729
:101E0A00D300072F0800403084000A128A110025E7
:101E1A000A128A150A128A152B260A128A15F40042
:101E2A004F3084000A128A1100250A128A15740298
:101E3A00031C202F212F2D2F4C300A128A15CD2555
:101E4A000A128A150130F2000030F300362F362FBD
:101E5A004E300A128A15CD250A128A15F201F301AB
:101E6A00362F0800FC00392F831603178C183E2FD3
:101E7A003F2F392F402F7C08831203178D007A08D1
:101E8A008C003F30FB007B08831603178C058312F6
:101E9A00031303108B1F522F532F542F03148B132A
:101EAA00831603170C1555308D00AA308D008C143B
:101EBA000C1183120313031C632F642F672F8B17D4
:101ECA00672F672F0800F8007808F2007208F900F7
:101EDA006F2F6F2F790884000130F9078313800868
:101EEA00031D782F792F6F2F7A2F7808F200003090
:101EFA00F300F209F309F20A0319F30A7908F40064
:101F0A000030F50072087407F60073080318730AA4
:101F1A007507F7007608FF3EF00077080318013EC0
:101F2A00FF3EF100982F080083120313DA005A08C3
:101F3A00D4005408DB00A22FA22F5B0884000130D2
:101F4A00DB0783138008031DAB2FAC2FA22FAD2F05
:101F5A005A08D4000030D500D409D509D40A031987
:101F6A00D50A5B08D6000030D70054085607D800B7
:101F7A0055080318550A5707D9005808FF3ED200DA
:101F8A0059080318013EFF3ED300CB2F0800413009
:101F9A0084000A128A1100250A128A150A128A1561
:101FAA002B260A128A15F400433084000A128A1179
:101FBA0000250A128A150A128A152B260A128A1570
:101FCA007406031DE92FEA2FF62F59300A128A15D3
:101FDA00CD250A128A150130F2000030F300FF2FD6
:101FEA00FF2F4E300A128A15CD250A128A15F201E0
:061FFA00F301FF2F0800B7
:02400E003AFF77
:00000001FF
