:060000000A128A11122809
:10000800FE00030E83120313E2000408E3000A084B
:10001800E4007F08E5000A128A15062E0A128A11E2
:10002800E52C6A29603084000A128A1100250A1218
:100038008A110A128A15C8250A128A115C308400AE
:100048000A128A1100250A128A110A128A15C8256D
:100058000A128A115D3084000A128A1100250A12D8
:100068008A110A128A15C8250A128A118F29603046
:1000780084000A128A1100250A128A110A128A15A6
:10008800C8250A128A11573084000A128A110025DD
:100098000A128A110A128A15C8250A128A118F298A
:1000A800603084000A128A1100250A128A110A1285
:1000B8008A15C8250A128A11583084000A128A1132
:1000C80000250A128A110A128A15C8250A128A11ED
:1000D8008F29603084000A128A1100250A128A11B9
:1000E8000A128A15C8250A128A114B3084000A128E
:1000F8008A1100250A128A110A128A15C8250A12BD
:100108008A114C3084000A128A1100250A128A11B9
:100118000A128A15C8250A128A118F2960308400AC
:100128000A128A1100250A128A110A128A15C8258C
:100138000A128A11473084000A128A1100250A120D
:100148008A110A128A15C8250A128A118F29603065
:1001580084000A128A1100250A128A110A128A15C5
:10016800C8250A128A11483084000A128A1100250B
:100178000A128A110A128A15C8250A128A118F29A9
:10018800603084000A128A1100250A128A110A12A4
:100198008A15C8250A128A1152300A128A15C825EA
:1001A8000A128A1154300A128A15C8250A128A11AD
:1001B80043300A128A15C8250A128A118F2960301D
:1001C80084000A128A1100250A128A110A128A1555
:1001D800C8250A128A115C3084000A128A11002587
:1001E8000A128A110A128A15C8250A128A115D3064
:1001F80084000A128A1100250A128A110A128A1525
:10020800C8250A128A11573084000A128A1100255B
:100218000A128A110A128A15C8250A128A11583038
:1002280084000A128A1100250A128A110A128A15F4
:10023800C8250A128A114B3084000A128A11002537
:100248000A128A110A128A15C8250A128A114C3014
:1002580084000A128A1100250A128A110A128A15C4
:10026800C8250A128A11473084000A128A1100250B
:100278000A128A110A128A15C8250A128A114830E8
:1002880084000A128A1100250A128A110A128A1594
:10029800C8250A128A1152300A128A15C8250A126C
:1002A8008A1154300A128A15C8250A128A11433055
:1002B8000A128A15C8250A128A118F29A9300A122A
:1002C8008A1508270A128A118F298F29423084003B
:1002D8000A128A1100250A128A110A128A1523267F
:1002E8000A128A11003A03191628013A03193B2801
:1002F800033A03195428013A03196D28073A0319D8
:100308009228013A0319AB28033A0319C428013A81
:100318000319E3286229080083120313AB00A8011C
:10032800A9010A128A15D9260A128A1173087204B9
:1003380003199F29A029C42A0A128A1589260A1294
:100348008A11730872040319AA29AB29C42A8312D3
:1003580003132B08013E840083130008A40024081B
:10036800FD002B08840000080A128A1564260A1268
:100378008A1183120313A5002508FA00543084005B
:100388000A128A1100250A128A110A128A153727B9
:100398000A128A11831203132B08033E8400831365
:1003A8000008A4002408FD002B08023E8400000871
:1003B8000A128A1564260A128A1183120313A500E9
:1003C8002508FA00533084000A128A1100250A12FF
:1003D8008A110A128A1537270A128A1183120313FF
:1003E8002B08053E840083130008A4002408FD00A0
:1003F8002B08043E840000080A128A1564260A1293
:100408008A1183120313A5002508FA0042308400DC
:100418000A128A1100250A128A110A128A15372728
:100428000A128A11831203132B08073E84008313D0
:100438000008A4002408FD002B08063E84000008DC
:100448000A128A1564260A128A1183120313A50058
:100458002508FA004D3084000A128A1100250A1274
:100468008A110A128A1537270A128A11831203136E
:100478002B080A128A1568270A128A117008FF3E8B
:10048800831203132B07A400240884008313000895
:10049800A5002508FD002B080A128A1568270A12EC
:1004A8008A117008FE3E831203132B07A600260844
:1004B8008400831300080A128A1564260A128A1116
:1004C80083120313A7002708FA00433084000A1296
:1004D8008A1100250A128A110A128A1537270A1268
:1004E8008A1183120313AA01AF2A2808093E2B0791
:1004F800A4002408840083130008A5002508FD0033
:100508002808083E2B07A6002608840000080A12BF
:100518008A1564260A128A1183120313A700270872
:10052800FA00443084000A128A1100250A128A113E
:100538002A070A128A1537270A128A1102308312EB
:100548000313A8070318A90A0030A9070130A4005B
:100558002408AA07AF2A4D3084000A128A11002500
:100568000A128A110A128A1523260A128A1183127C
:1005780003132A02031CC12AC22A792AC42AC42ABC
:1005880008004D3084000A128A1100250A128A11C7
:100598000A128A1523260A128A110038031DD52A41
:1005A800D62A092B513084000A128A1100250A1212
:1005B8008A11F400F501F409F509F40A0319F50A9A
:1005C800403084000A128A1100250A128A110A1280
:1005D8008A1523260A128A117407F600750803186B
:1005E800750AF70077087604031DFB2AFC2A092BF5
:1005F80044300A128A15C8250A128A110130F200FD
:100608000030F3005E2B5E2B552B4D3084000A1210
:100618008A1100250A128A110A128A1523260A123B
:100628008A11F400F5010130FF000310F40DF50DF7
:10063800FF0B192B513084000A128A1100250A1267
:100648008A11F600F701F609F709F60A0319F70AFD
:10065800403084000A128A1100250A128A110A12EF
:100668008A1523260A128A117607F80077080318D4
:10067800770AF90075087906031D442B7408780673
:10068800031D472B482B552B44300A128A15C825C1
:100698000A128A110130F2000030F3005E2B5E2B43
:1006A800552B4E300A128A15C8250A128A11F201F2
:1006B800F3015E2B0800413084000A128A110025DC
:1006C8000A128A110A128A1523260A128A1183121B
:1006D8000313A0004D3084000A128A1100250A1263
:1006E8008A110A128A1523260A128A118312031301
:1006F8002007A1002108FA00413084000A128A115B
:1007080000250A128A110A128A1537270A128A1135
:10071800FD01C32B413084000A128A1100250A12F8
:100728008A110A128A1523260A128A1183120313C0
:10073800A000443084000A128A1100250A128A1186
:100748007D070A128A1523260A128A1183120313B7
:100758002007A1002108FA00413084000A128A11FA
:1007680000250A128A110A128A1537270A128A11D5
:10077800013083120313A0002008FD07C32B4D305E
:1007880084000A128A1100250A128A110A128A158F
:1007980023260A128A117D02031CD32BD42B8E2BFD
:1007A800D52B0800423084000A128A1100250A124B
:1007B8008A110A128A1523260A128A1142308400E5
:1007C8000A128A1100250A128A110A128A1523268A
:1007D8000A128A1183120313A2004E3084000A12EF
:1007E8008A1100250A128A11A30022082302031C79
:1007F800FE2BFF2B3A2C413084000A128A11002567
:100808000A128A110A128A1523260A128A118312D9
:100818000313A200423084000A128A1100250A122A
:100828008A110A128A1523260A128A1183120313BF
:100838002207A3002308FA00413084000A128A1113
:1008480000250A128A110A128A1537270A128A11F4
:1008580043300A128A15C8250A128A1101308312F8
:100868000313A0000030A100452C452C4E300A127D
:100878008A15C8250A128A1183120313A001A1013F
:10088800452C0800533084000A128A1100250A12E8
:100898008A110A128A1523260A128A11003A0319A4
:1008A800562C572C692C533084000A128A110025C3
:1008B8000A128A110A128A1523260A128A11013A83
:1008C800031D672C682CA42C692C52300A128A1537
:1008D800C8250A128A11413084000A128A1100259B
:1008E8000A128A110A128A1523260A128A118312F9
:1008F8000313A200533084000A128A1100250A1239
:100908008A110A128A1523260A128A1183120313DE
:100918002207A3002308FA00413084000A128A1132
:1009280000250A128A110A128A1537270A128A1113
:10093800013083120313A0000030A100AF2CAF2CAC
:100948004E300A128A15C8250A128A118312031317
:10095800A001A101AF2C080083160313CD00CE011E
:10096800CF01CB2C4E084D07CC004C0884008313D4
:1009780000080A128A15E3250A128A110130831623
:100988000313CE070318CF0A0030CF07CB2C4D082E
:100998000A128A1599270A128A1183160313430823
:1009A8004F02031DD92C42084E02031CDC2CDD2CFF
:1009B800B62CDE2C4E080A128A15E3250A128A1173
:1009C8000800831790308400C2300A128A15AA25BD
:1009D8000A128A118313C230FD000E30FE00423025
:1009E800FF00A03084000A128A11EB270A128A112C
:1009F80083010A128A112C2F05308A000408840A00
:100A080082070034443465346534703461346B349F
:100A180020344334683461346E346434723461345D
:100A2800733465346B346134723400344134703457
:100A38007534723476346534203442346834693419
:100A48006434653400344734723465346734203490
:100A5800473469347234613472346434003446344F
:100A680061346C346C3420343234303431343334BF
:100A78000034453443344534353436343234303434
:100A88000034003430340334053407340634323447
:100A98008434863450340A348034823404340E3436
:100AA8000A340A340A34003402340134003410346D
:100AB800623464346434A034663460346134FF349E
:100AC8000A34AA34013483160313C2015C3084004B
:100AD8000A128A1100250A128A110A128A11762727
:100AE8000A128A1183160313C2015D3084000A12A8
:100AF8008A1100250A128A110A128A1176270A1207
:100B08008A11593084000A128A1100250A128A11A2
:100B180083160313C5004508C200573084000A1223
:100B28008A1100250A128A110A128A1176270A12D6
:100B38008A115A3084000A128A1100250A128A1171
:100B480083160313C5004508C200583084000A12F2
:100B58008A1100250A128A110A128A1176270A12A6
:100B68008A11553084000A128A1100250A128A1146
:100B780083160313C5004508C2005B3084000A12BF
:100B88008A1100250A128A110A128A1176270A1276
:100B98008A110800603084000A128A1100250A129E
:100BA8008A1183120313A200543084000A128A1196
:100BB80000250A128A110A128A1523260A128A1196
:100BC800831203132206031DEA2DEB2D262E533024
:100BD8000A128A15C8250A128A11413084000A129D
:100BE8008A1100250A128A110A128A1523260A1266
:100BF8008A1183120313A200543084000A128A1146
:100C080000250A128A110A128A1523260A128A1145
:100C1800831203132207A3002308FA00413084003B
:100C28000A128A1100250A128A110A128A15372710
:100C38000A128A11013083120313A0000030A100A8
:100C4800312E312E4E300A128A15C8250A128A1101
:100C580083120313A001A101312E08003030840053
:100C6800903083120313AC000408AD003230AE009C
:100C78002C08840083170008AF00AC0A2D088400F4
:100C880083132F088000AD0AAE0B3C2E30300A12B9
:100C98008A11E1260A128A11FA01413084000A12E7
:100CA8008A1100250A128A110A128A1537270A1290
:100CB8008A1130300A128A1190210A128A110A12F6
:100CC8008A1190260A128A11831203132508240414
:100CD80003196F2E702E8F2E533084000A128A113A
:100CE80000250A128A110A128A1523260A128A1165
:100CF8000038031D802E812E872E0A128A11152096
:100D08000A128A118F2E0A128A11FF270A128A11D3
:100D18008F2E8F2E8F2E08000A128A11CE250A12C6
:100D28008A11831203132108200403199C2E9D2E77
:100D3800DB2E0A128A1146240A128A11831203131F
:100D4800210820040319A92EAA2EDB2E0A128A11C3
:100D5800D6230A128A1183120313210820040319C7
:100D6800B62EB72EDB2E0A128A11C5220A128A1154
:100D7800730872040319C12EC22EDB2E0A128A11BF
:100D88005F230A128A110A128A15CC270A128A11BD
:100D9800730872040319D12ED22EDB2E0130831270
:100DA8000313A4000030A500E02EE02EDB2E8312F2
:100DB8000313A401A501E02E080083120313A20067
:100DC800A301A4010A128A15B2250A128A118312F4
:100DD8000313A0002008A5000C2F2508A000230855
:100DE8002207A10021088400200883138000013015
:100DF800A3070318A40A0030A4070A128A15B2250B
:100E08000A128A1183120313A0002008A5000C2FD0
:100E18005F3084000A128A1100250A128A11A00084
:100E280025082006031D192F1A2FF12E1B2F230822
:100E3800A0002008FA00403084000A128A11002518
:100E48000A128A110A128A1537270A128A1108000B
:100E5800D4308400A03083160313D0000408D100D6
:100E68000930D2005008840083130008D300D00A48
:100E78005108840053088000D10AD20B362F86010E
:100E88008312031386140A128A15BD250A128A11C1
:100E98000A128A1167250A128A110A128A15F4257C
:100EA8000A128A11D4300A128A11B0240A128A113D
:100EB8005D2F0A128A11B1270A128A111A30831675
:100EC8000313D2005E30D1008630D000D00B6A2FD9
:100ED800D10B6A2FD20B6A2F64005D2F5D2F0A1287
:100EE8008A11122883160313C4007A2F8316031756
:100EF8008C187F2F802F7A2F812F83160313440895
:100F0800831203178D0083160313420883120317F5
:100F18008C003F3083160313C3004308831603175E
:100F28008C058312031303108B1F9B2F9C2F9D2F5F
:100F380003148B13831603170C1555308D00AA3034
:100F48008D008C140C1183120313031CAC2FAD2FCE
:100F5800B02F8B17B02FB02F08000A128A11FA276A
:100F68000A128A110A128A15B0260A128A118316E1
:100F780003134308C801C8074208C701C707470841
:100F8800C6004608C2005D3084000A128A11002596
:100F98000A128A110A128A1176270A128A118316EE
:100FA80003134808C6004608C2005C3084000A12D1
:100FB8008A1100250A128A11013E0A128A1176271F
:100FC8000A128A1108007E088A007F0882000A1225
:100FD8008A11E7270A128A118000840A04087D060C
:100FE80003190034FF0A0319FE0AEB2F803083121D
:080FF80003139F00080008002C
:101B540064008001840A0406031900340406AB2DD2
:101B6400B32D831203138C1EB82DB92DB32DBA2DAA
:101B74001A08BC2D08000330831603138500803037
:101B84009F008030831203139F000800F000CA2DC9
:101B9400831203130C1ECF2DD02DCA2DD12D700806
:101BA40099000800F00041307002031CDA2DDB2D8F
:101BB400DF2D7008C93EE22DE22D7008D03EE22DE3
:101BC400080083160313C200E72D83120C1EEB2DAD
:101BD400EC2DE72DED2D8316031342088312031316
:101BE4009900080083160313071387179030831294
:101BF400031398002430831603139800813099004E
:101C04008B170B178C1608008C1E092E0A2E162E05
:101C1400831603138C1E0F2E102E162E0A128A11F1
:101C240032260A128A15162E831203136508FF0042
:101C340064088A0063088400620E8300FE0E7E0E30
:101C44000900F1006400831603178C182A2E2B2E2A
:101C5400242E2C2E7108831203178D003F30F000C0
:101C64007008831603178C050C1403100C18031446
:101C7400003003180130831203170C08412E0800AA
:101C8400573465346C3463346F346D3465340A34DA
:101C940000344E346F347434203461342034763458
:101CA40061346C346934643420347234653461349E
:101CB4006434203463346F346D346D3461346E3481
:101CC4006434003483120313A20022080A128A1512
:101CD400D4250A128A1583120313A00003300310BB
:101CE400A00DFF3E031D712E0310200DA10021083D
:101CF400A3007D080A128A15D4250A128A158312B4
:101D04000313A0002008A3042308882E08004030F1
:101D140084000A128A1100250A128A150A128A15E9
:101D240023260A128A15F4007418992E9A2EA62EC8
:101D340045300A128A15C8250A128A150130F200A4
:101D44000030F300AF2EAF2E4E300A128A15C8258C
:101D54000A128A15F201F301AF2E0800831203134D
:101D64001F14413083160313C500EE30C400C40BA6
:101D7400B92EC50BB92E6400831203131F15C22E8E
:101D84001F19C52EC62EC22EC72E1E088316031376
:101D9400C400C5014408C500C4011E084407C200AC
:101DA4000030031801304507C300D82E0800403026
:101DB40084000A128A1100250A128A150A128A1549
:101DC40023260A128A15F4004F3084000A128A115D
:101DD40000250A128A157402031CF12EF22EFE2E1F
:101DE4004C300A128A15C8250A128A150130F200ED
:101DF4000030F300072F072F4E300A128A15C8252A
:101E04000A128A15F201F301072F0800FB00FC01F6
:101E1400FD011F2F7C087B07FA007A0884008313D6
:101E240000080A128A15C8250A128A150130FC070F
:101E34000318FD0A0030FD071F2F7B080A128A15BC
:101E440068270A128A1571087D02031D2B2F70085A
:101E54007C02031C2E2F2F2F0C2F302F7C080A12EC
:101E64008A15C8250A128A150800FC00392F831622
:101E740003178C183E2F3F2F392F402F7C088312D5
:101E840003178D007A088C003F30FB007B08831613
:101E940003178C058312031303108B1F522F532F28
:101EA400542F03148B13831603170C1555308D0010
:101EB400AA308D008C140C1183120313031C632F9E
:101EC400642F672F8B17672F672F0800F800780897
:101ED400F2007208F9006F2F6F2F79088400013027
:101EE400F90783138008031D782F792F6F2F7A2F1A
:101EF4007808F2000030F300F209F309F20A03193A
:101F0400F30A7908F4000030F50072087407F6004B
:101F140073080318730A7507F7007608FF3EF0008C
:101F240077080318013EFF3EF100982F080083163E
:101F34000313CA004A08C4004408CB00A22FA22FEE
:101F44004B0884000130CB0783138008031DAB2F9B
:101F5400AC2FA22FAD2F4A08C4000030C500C4091D
:101F6400C509C40A0319C50A4B08C6000030C700D6
:101F740044084607C80045080318450A4707C9002E
:101F84004808FF3EC20049080318013EFF3EC30053
:101F9400CB2F0800413084000A128A1100250A124E
:101FA4008A150A128A1523260A128A15F400433068
:101FB40084000A128A1100250A128A150A128A1547
:101FC40023260A128A157406031DE92FEA2FF62F19
:101FD40059300A128A15C8250A128A150130F200EE
:101FE4000030F300FF2FFF2F4E300A128A15C82548
:0C1FF4000A128A15F201F301FF2F080009
:02400E003AFF77
:00000001FF
