:100000000A128A11D12900308A000408840A820762
:100010000034443465346534703461346B342034D6
:100020004334683461346E3464347234613473340C
:1000300065346B3461347234003441347034753457
:10004000723476346534203442346834693464342C
:1000500065340034473472346534673420344734AF
:100060006934723461347234643400344634613437
:100070006C346C3420343234303431343334003422
:100080004534433445343534363432343034003436
:100090000034303403340534073406343234043445
:1000A0000E340A340A340A34023401340A34AA34CD
:1002DA0064008001840A04060319003404066E29A6
:1002EA00573465346C3463346F346D3465340A348E
:1002FA0000347F29831203138C1E842985297F29C0
:10030A0086291A08882908000330831603138500F2
:10031A0080309F008030831203139F000800F00092
:10032A009629831203130C1E9B299C2996299D2921
:10033A007008990008008316031307138717903073
:10034A008312031398002430831603139800813014
:10035A0099000800F00041307002031CB529B62943
:10036A00BA297008C93EBD29BD297008D03EBD29E9
:10037A0008007E088A007F0882000A128A11BE21BC
:10038A000A128A118000840A04087D0603190034BF
:10039A00FF0A0319FE0AC2298313A0308400D2304F
:1003AA000A128A116D210A128A11DB30FD0001300E
:1003BA00FE007530FF00D23084000A128A11C22171
:1003CA000A128A1183010A128A114A2BF100640067
:1003DA00831603178C18F229F329EC29F4297108DA
:1003EA00831203178D003F30F0007008831603173D
:1003FA008C050C1403100C18031400300318013078
:10040A00831203170C08092A080083120313A20097
:10041A0022080A128A11AF210A128A1183120313BF
:10042A00A00003300310A00DFF3E031D172A03107E
:10043A00200DA1002108A3007D080A128A11AF210C
:10044A000A128A1183120313A0002008A3042308A6
:10045A002E2A0800403084000A128A1103200A1248
:10046A008A110A128A11EB210A128A11F4007418ED
:10047A003F2A402A4C2A45300A128A1194210A122C
:10048A008A110130F2000030F300552A552A4E3005
:10049A000A128A1194210A128A11F201F301552AC9
:1004AA000800FB00FC01FD016D2A7C087B07FA00AD
:1004BA007A088400831300080A128A1194210A1206
:1004CA008A110130FC070318FD0A0030FD076D2A66
:1004DA007B080A128A11B4220A128A1171087D0253
:1004EA00031D792A70087C02031C7C2A7D2A5A2A59
:1004FA007E2A7C080A128A1194210A128A1108009B
:10050A00403084000A128A1103200A128A110A1240
:10051A008A11EB210A128A11F400493084000A1266
:10052A008A1103200A128A117402031C9D2A9E2A28
:10053A00AA2A4C300A128A1194210A128A1101300D
:10054A00F2000030F300B32AB32A4E300A128A119D
:10055A0094210A128A11F201F301B32A0800F80061
:10056A007808F2007208F900BB2ABB2A79088400CD
:10057A000130F90783138008031DC42AC52ABB2A40
:10058A00C62A7808F2000030F300F209F309F20AE9
:10059A000319F30A7908F4000030F50072087407A9
:1005AA00F60073080318730A7507F7007608FF3E0A
:1005BA00F00077080318013EFF3EF100E42A080024
:1005CA00FC00E72A831603178C18EC2AED2AE72A7F
:1005DA00EE2A7C08831203178D007A088C003F30BC
:1005EA00FB007B08831603178C0583120313031081
:1005FA008B1F002B012B022B03148B13831603175B
:10060A000C1555308D00AA308D008C140C118312F4
:10061A000313031C112B122B152B8B17152B152BC0
:10062A000800413084000A128A1103200A128A1132
:10063A000A128A11EB210A128A11F400433084004B
:10064A000A128A1103200A128A110A128A11EB214C
:10065A000A128A117406031D332B342B402B59308E
:10066A000A128A1194210A128A110130F20000300A
:10067A00F300492B492B4E300A128A1194210A128F
:10068A008A11F201F301492B080066308400D23046
:10069A0083120313E2000408E3000930E40062084D
:1006AA00840083130008E500E20A630884006508F1
:1006BA008000E30AE40B542B0A128A11A0210A12C1
:1006CA008A110A128A1189210A128A1166300A12BB
:1006DA008A1156220A128A11722B831203138C1E54
:1006EA00772B782B722B0A128A111F240A128A116D
:1006FA00722B722B722B0A128A110028831203138F
:10070A00A200A301A4010A128A117E210A128A11E7
:10071A0083120313A0002008A500AE2B2508A00011
:10072A0023082207A10021088400200883138000DF
:10073A000130A3070318A40A0030A4070A128A1179
:10074A007E210A128A1183120313A0002008A50031
:10075A00AE2B4E3084000A128A1103200A128A1123
:10076A00A00025082006031DBB2BBC2B932BBD2BF9
:10077A002308A0002008FA00403084000A128A11D7
:10078A0003200A128A110A128A11E5220A128A1110
:10079A0008000A128A117C240A128A11831203138E
:1007AA00210820040319DA2BDB2B192C0A128A11CF
:1007BA00E0240A128A118312031321082004031960
:1007CA00E72BE82B192C0A128A114A250A128A11D8
:1007DA0083120313210820040319F42BF52B192C77
:1007EA000A128A1131260A128A117308720403192D
:1007FA00FF2B002C192C0A128A11BA250A128A1107
:10080A000A128A1116230A128A117308720403192A
:10081A000F2C102C192C013083120313A400003062
:10082A00A5001E2C1E2C192C83120313A401A5014A
:10083A001E2C0800FA01413084000A128A11032092
:10084A000A128A110A128A11E5220A128A11303012
:10085A008400A03083120313AC000408AD003230C8
:10086A00AE002C08840083130008AF00AC0A2D08E0
:10087A0084002F088000AD0AAE0B362C30300A12E5
:10088A008A1183230A128A11403084000A128A11BB
:10089A0003200A128A110A128A11EB210A128A11FA
:1008AA000A128A1194210A128A1130300A128A1104
:1008BA00CB260A128A110A128A11CE230A128A1127
:1008CA00831203132508240403196C2C6D2C742C31
:1008DA0056300A128A1194210A128A117B2C4E3040
:1008EA000A128A1194210A128A117B2C08004F30AD
:1008FA0084000A128A1103200A128A11831203132E
:10090A00A2004D3084000A128A1103200A128A11A9
:10091A000A128A11EB210A128A1183120313220680
:10092A00031D982C992CD42C53300A128A11942125
:10093A000A128A11413084000A128A1103200A120B
:10094A008A110A128A11EB210A128A1183120313DD
:10095A00A2004D3084000A128A1103200A128A1159
:10096A000A128A11EB210A128A118312031322072F
:10097A00A3002308FA00413084000A128A110320D6
:10098A000A128A110A128A11E5220A128A11013000
:10099A0083120313A0000030A100DF2CDF2C4E309D
:1009AA000A128A1194210A128A1183120313A001CE
:1009BA00A101DF2C08004C3084000A128A1103209E
:1009CA000A128A110A128A11EB210A128A11003AB2
:1009DA000319F02CF12C032D4C3084000A128A11D1
:1009EA0003200A128A110A128A11EB210A128A11A9
:1009FA00013A031D012D022D3E2D032D52300A12FC
:100A0A008A1194210A128A11413084000A128A1129
:100A1A0003200A128A110A128A11EB210A128A1178
:100A2A0083120313A2004C3084000A128A11032095
:100A3A000A128A110A128A11EB210A128A118312E6
:100A4A0003132207A3002308FA00413084000A1284
:100A5A008A1103200A128A110A128A11E5220A123D
:100A6A008A11013083120313A0000030A100492D1E
:100A7A00492D4E300A128A1194210A128A118312C0
:100A8A000313A001A101492D0800423084000A1273
:100A9A008A1103200A128A110A128A11EB210A12F8
:100AAA008A11423084000A128A1103200A128A111A
:100ABA000A128A11EB210A128A1183120313A20065
:100ACA00483084000A128A1103200A128A11A300EC
:100ADA0022082302031C722D732DAE2D413084008F
:100AEA000A128A1103200A128A110A128A11EB21A8
:100AFA000A128A1183120313A200423084000A12D6
:100B0A008A1103200A128A110A128A11EB210A1287
:100B1A008A11831203132207A3002308FA00413023
:100B2A0084000A128A1103200A128A110A128A11EF
:100B3A00E5220A128A1143300A128A1194210A12F2
:100B4A008A11013083120313A0000030A100B92DCD
:100B5A00B92D4E300A128A1194210A128A1183126F
:100B6A000313A001A101B92D0800413084000A1223
:100B7A008A1103200A128A110A128A11EB210A1217
:100B8A008A1183120313A000473084000A128A11C3
:100B9A0003200A128A110A128A11EB210A128A11F7
:100BAA00831203132007A1002108FA0041308400B0
:100BBA000A128A1103200A128A110A128A11E522DC
:100BCA000A128A11FD011E2E413084000A128A116E
:100BDA0003200A128A110A128A11EB210A128A11B7
:100BEA0083120313A000443084000A128A110320DE
:100BFA000A128A117D070A128A11EB210A128A1136
:100C0A00831203132007A1002108FA00413084004F
:100C1A000A128A1103200A128A110A128A11E5227B
:100C2A000A128A11013083120313A0002008FD075B
:100C3A001E2E473084000A128A1103200A128A11D2
:100C4A000A128A11EB210A128A117D02031C2E2E26
:100C5A002F2EE92D302E0800473084000A128A11FF
:100C6A0003200A128A110A128A11EB210A128A1126
:100C7A000038031D412E422E752E4B3084000A1275
:100C8A008A1103200A128A11F400F501F409F50900
:100C9A00F40A0319F50A403084000A128A11032063
:100CAA000A128A110A128A11EB210A128A1174078E
:100CBA00F60075080318750AF70077087604031D0D
:100CCA00672E682E752E44300A128A1194210A1250
:100CDA008A110130F2000030F300CA2ECA2EC12E4A
:100CEA00473084000A128A1103200A128A110A1252
:100CFA008A11EB210A128A11F400F5010130FF0072
:100D0A000310F40DF50DFF0B852E4B3084000A12EB
:100D1A008A1103200A128A11F600F701F609F70967
:100D2A00F60A0319F70A403084000A128A110320CE
:100D3A000A128A110A128A11EB210A128A117607FB
:100D4A00F80077080318770AF90075087906031D71
:100D5A00B02E74087806031DB32EB42EC12E44306B
:100D6A000A128A1194210A128A110130F200003003
:100D7A00F300CA2ECA2EC12E4E300A128A119421AD
:100D8A000A128A11F201F301CA2E08008312031310
:100D9A00AB00A801A9010A128A1185220A128A1136
:100DAA00730872040319DA2EDB2EFF2F0A128A1136
:100DBA002F220A128A11730872040319E52EE62EED
:100DCA00FF2F831203132B08013E840083130008AC
:100DDA00A4002408FD002B08840000080A128A11C6
:100DEA000A220A128A1183120313A5002508FA009F
:100DFA004D3084000A128A1103200A128A110A123B
:100E0A008A11E5220A128A11831203132B08033E60
:100E1A00840083130008A4002408FD002B08023E66
:100E2A00840000080A128A110A220A128A118312FD
:100E3A000313A5002508FA004C3084000A128A110F
:100E4A0003200A128A110A128A11E5220A128A1149
:100E5A00831203132B08053E840083130008A400A1
:100E6A002408FD002B08043E840000080A128A1197
:100E7A000A220A128A1183120313A5002508FA000E
:100E8A00423084000A128A1103200A128A110A12B5
:100E9A008A11E5220A128A11831203132B08073ECC
:100EAA00840083130008A4002408FD002B08063ED2
:100EBA00840000080A128A110A220A128A1183126D
:100ECA000313A5002508FA00473084000A128A1184
:100EDA0003200A128A110A128A11E5220A128A11B9
:100EEA00831203132B080A128A11B4220A128A11D6
:100EFA007008FF3E831203132B07A4002408840002
:100F0A0083130008A5002508FD002B080A128A1180
:100F1A00B4220A128A117008FE3E831203132B07A9
:100F2A00A60026088400831300080A128A110A22DE
:100F3A000A128A1183120313A7002708FA00433002
:100F4A0084000A128A1103200A128A110A128A11CB
:100F5A00E5220A128A1183120313AA01EA2F28082A
:100F6A00093E2B07A4002408840083130008A50067
:100F7A002508FD002808083E2B07A600260884003D
:100F8A0000080A128A110A220A128A11831203130A
:100F9A00A7002708FA00443084000A128A110320A5
:100FAA000A128A112A070A128A11E5220A128A11DA
:100FBA00023083120313A8070318A90A0030A907ED
:100FCA000130A4002408AA07EA2F473084000A1235
:100FDA008A1103200A128A110A128A11EB210A12B3
:100FEA008A11831203132A02031CFC2FFD2FB42F2C
:060FFA00FF2FFF2F08008D
:02400E003AFF77
:00000001FF
