:100000000A128A11132A00308A000408840A82071F
:100010000034443465346534703461346B342034D6
:100020004334683461346E3464347234613473340C
:1000300065346B3461347234003441347034753457
:10004000723476346534203442346834693464342C
:1000500065340034473472346534673420344734AF
:100060006934723461347234643400344634613437
:100070006C346C3420343234303431343334003422
:100080004534433445343534363432343034003436
:100090000034303403340534073406343234043445
:1000A0000E340A340A340A34023401340A34AA34CD
:1002760064008001840A04060319003404063C293C
:10028600573465346C3463346F346D3465340A34F2
:1002960000344C3465346E346734743468343A341C
:1002A600203400345629831203138C1E5B295C29E3
:1002B60056295D291A085F2908000330831603139F
:1002C600850080309F008030831203139F00080052
:1002D600F0006D29831203130C1E722973296D29F0
:1002E60074297008990008008316031307138717EB
:1002F600903083120313980024308316031398005A
:10030600813099000800F00041307002031C8C29EE
:100316008D2991297008C93E942994297008D03EE8
:10032600942908007E088A007F0882000A128A1132
:1003360095210A128A118000840A04087D06031991
:100346000034FF0A0319FE0A9929F1006400831696
:1003560003178C18AF29B029A929B129710883126E
:1003660003178D003F30F0007008831603178C05C5
:100376000C1403100C1803140030031801308312F8
:1003860003170C08C629080083120313D400540867
:100396000A128A1186210A128A1183120313D200C5
:1003A60003300310D20DFF3E031DD4290310520D56
:1003B600D3005308D5007D080A128A1186210A1235
:1003C6008A1183120313D2005208D5045508EB296B
:1003D6000800403084000A128A1103200A128A118A
:1003E6000A128A11A8210A128A11F4007418FC292B
:1003F600FD29092A45300A128A116B210A128A112F
:100406000130F2000030F300122A122A4E300A128E
:100416008A116B210A128A11F201F301122A0800CD
:1004260083132030840052300A128A113B210A12AB
:100436008A11ED30FD000130FE004330FF00E4304C
:1004460084000A128A1199210A128A116B30FD0062
:100456000130FE004C30FF00623084000A128A111F
:1004660099210A128A1183010A128A11192EFB0098
:10047600FC01FD01512A7C087B07FA007A088400FA
:10048600831300080A128A116B210A128A1101309D
:10049600FC070318FD0A0030FD07512A7B080A12E3
:1004A6008A1198220A128A1171087D02031D5D2A9B
:1004B60070087C02031C602A612A3E2A622A7C0894
:1004C6000A128A116B210A128A1108004030840030
:1004D6000A128A1103200A128A110A128A11A82105
:1004E6000A128A11F400493084000A128A11032084
:1004F6000A128A117402031C812A822A8E2A4C301F
:100506000A128A116B210A128A110130F200003098
:10051600F300972A972A4E300A128A116B210A1283
:100526008A11F201F301972A0800F8007808F20010
:100536007208F9009F2A9F2A790884000130F9077A
:1005460083138008031DA82AA92A9F2AAA2A7808A5
:10055600F2000030F300F209F309F20A0319F30A74
:100566007908F4000030F50072087407F600730885
:100576000318730A7507F7007608FF3EF000770840
:100586000318013EFF3EF100C82A0800FC00CB2AF2
:10059600831603178C18D02AD12ACB2AD22A7C0894
:1005A600831203178D007A088C003F30FB007B080E
:1005B600831603178C058312031303108B1FE42A7B
:1005C600E52AE62A03148B13831603170C155530F8
:1005D6008D00AA308D008C140C1183120313031C9A
:1005E600F52AF62AF92A8B17F92AF92A0800413042
:1005F60084000A128A1103200A128A110A128A1129
:10060600A8210A128A11F400433084000A128A11C2
:1006160003200A128A110A128A11A8210A128A11C3
:100626007406031D172B182B242B59300A128A1116
:100636006B210A128A110130F2000030F3002D2BD3
:100646002D2B4E300A128A116B210A128A11F201E1
:10065600F3012D2B080083120313D400D501D60114
:100666000A128A1155210A128A1183120313D20023
:100676005208D700592B5708D20055085407D30003
:10068600530884005208831380000130D5070318ED
:10069600D60A0030D6070A128A1155210A128A1183
:1006A60083120313D2005208D700592B4E30840010
:1006B6000A128A1103200A128A11D200570852061A
:1006C600031D662B672B3E2B682B5508D20052085C
:1006D600FA00403084000A128A1103200A128A1195
:1006E6000A128A11C9220A128A1108000A128A11EC
:1006F600CA230A128A1183120313530852040319D8
:10070600852B862BC42B0A128A112E240A128A11D3
:1007160083120313530852040319922B932BC42BF1
:100726000A128A1198240A128A1183120313530893
:10073600520403199F2BA02BC42B0A128A117F2562
:100746000A128A11730872040319AA2BAB2BC42B45
:100756000A128A1108250A128A110A128A11FA2225
:100766000A128A11730872040319BA2BBB2BC42B05
:10077600013083120313D6000030D700C92BC92BD2
:10078600C42B83120313D601D701C92B08004F309F
:1007960084000A128A1103200A128A118312031393
:1007A600D4004D3084000A128A1103200A128A11DD
:1007B6000A128A11A8210A128A11831203135406F7
:1007C600031DE62BE72B222C53300A128A116B21CC
:1007D6000A128A11413084000A128A1103200A1271
:1007E6008A110A128A11A8210A128A118312031386
:1007F600D4004D3084000A128A1103200A128A118D
:100806000A128A11A8210A128A11831203135407A5
:10081600D5005508FA00413084000A128A110320D7
:100826000A128A110A128A11C9220A128A11013081
:1008360083120313D2000030D3002D2C2D2C4E3002
:100846000A128A116B210A128A1183120313D2012A
:10085600D3012D2C08004C3084000A128A11032083
:100866000A128A110A128A11A8210A128A11003A5A
:1008760003193E2C3F2C512C4C3084000A128A114D
:1008860003200A128A110A128A11A8210A128A1151
:10089600013A031D4F2C502C8C2C512C52300A122D
:1008A6008A116B210A128A11413084000A128A11B8
:1008B60003200A128A110A128A11A8210A128A1121
:1008C60083120313D4004C3084000A128A110320C9
:1008D6000A128A110A128A11A8210A128A1183128F
:1008E60003135407D5005508FA00413084000A1254
:1008F6008A1103200A128A110A128A11C9220A12BF
:100906008A11013083120313D2000030D300972CD2
:10091600972C4E300A128A116B210A128A11831201
:100926000313D201D301972C0800423084000A1227
:100936008A1103200A128A110A128A11A8210A12A0
:100946008A11423084000A128A1103200A128A117F
:100956000A128A11A8210A128A1183120313D400DB
:10096600483084000A128A1103200A128A11D5001F
:1009760054085502031CC02CC12CFC2C41308400A9
:100986000A128A1103200A128A110A128A11A82150
:100996000A128A1183120313D400423084000A1209
:1009A6008A1103200A128A110A128A11A8210A1230
:1009B6008A11831203135407D5005508FA004130F3
:1009C60084000A128A1103200A128A110A128A1155
:1009D600C9220A128A1143300A128A116B210A129D
:1009E6008A11013083120313D2000030D300072D81
:1009F600072D4E300A128A116B210A128A118312B0
:100A06000313D201D301072D0800413084000A12D6
:100A16008A1103200A128A110A128A11A8210A12BF
:100A26008A1183120313D200473084000A128A11F6
:100A360003200A128A110A128A11A8210A128A119F
:100A4600831203135207D3005308FA00413084007F
:100A56000A128A1103200A128A110A128A11C9225D
:100A66000A128A11FD016C2D413084000A128A1186
:100A760003200A128A110A128A11A8210A128A115F
:100A860083120313D200443084000A128A11032011
:100A96000A128A117D070A128A11A8210A128A11DE
:100AA600831203135207D3005308FA00413084001F
:100AB6000A128A1103200A128A110A128A11C922FD
:100AC6000A128A11013083120313D2005208FD075D
:100AD6006C2D473084000A128A1103200A128A11EB
:100AE6000A128A11A8210A128A117D02031C7C2D82
:100AF6007D2D372D7E2D0800473084000A128A117D
:100B060003200A128A110A128A11A8210A128A11CE
:100B16000038031D8F2D902DC32D4B3084000A12F3
:100B26008A1103200A128A11F400F501F409F50965
:100B3600F40A0319F50A403084000A128A110320C8
:100B46000A128A110A128A11A8210A128A11740736
:100B5600F60075080318750AF70077087604031D72
:100B6600B52DB62DC32D44300A128A116B210A12F7
:100B76008A110130F2000030F300182E182E0F2EC5
:100B8600473084000A128A1103200A128A110A12B7
:100B96008A11A8210A128A11F400F5010130FF001A
:100BA6000310F40DF50DFF0BD32D4B3084000A1204
:100BB6008A1103200A128A11F600F701F609F709CD
:100BC600F60A0319F70A403084000A128A11032034
:100BD6000A128A110A128A11A8210A128A117607A4
:100BE600F80077080318770AF90075087906031DD7
:100BF600FE2D74087806031D012E022E0F2E44309A
:100C06000A128A116B210A128A110130F200003091
:100C1600F300182E182E0F2E4E300A128A116B2151
:100C26000A128A11F201F301182E0800D23084004C
:100C3600E43083120313DE000408DF000930E0000D
:100C46005E08840083130008E100DE0A5F08840062
:100C560061088000DF0AE00B232EDB30840062305F
:100C6600DE000408DF000930E0005E08840083131C
:100C76000008E100DE0A5F08840061088000DF0AE0
:100C8600E00B382E0A128A1177210A128A110A12EB
:100C96008A1160210A128A11D2300A128A113A2266
:100CA6000A128A11572E572E831203138C1E5C2E9E
:100CB6005D2E572E5E2EFA01413084000A128A11EB
:100CC60003200A128A110A128A11C9220A128A11EB
:100CD600A0308400203083120313DE000408DF00F6
:100CE6003230E0005E08840083130008E100DE0A6B
:100CF6005F08840061088000DF0AE00B752EA030D3
:100D06000A128A112E230A128A11A0300A128A1197
:100D16003A220A128A11DB300A128A113A220A1280
:100D26008A11403084000A128A1103200A128A119D
:100D36000A128A11A8210A128A110A128A116B2133
:100D46000A128A11A0300A128A11CB260A128A11B7
:100D56000A128A1179230A128A1183120313570879
:100D660056040319B72EB82EBF2E56300A128A1112
:100D76006B210A128A11572E4E300A128A116B21E4
:100D86000A128A11572E572E572E0A128A11002838
:100D960083120313DD00DA01DB010A128A116922CC
:100DA6000A128A11730872040319DA2EDB2EFF2F3A
:100DB6000A128A11EC210A128A11730872040319A5
:100DC600E52EE62EFF2F831203135D08013E8400F5
:100DD60083130008D6005608FD005D08840000084D
:100DE6000A128A11C7210A128A1183120313D70025
:100DF6005708FA004D3084000A128A1103200A129D
:100E06008A110A128A11C9220A128A11831203133D
:100E16005D08033E840083130008D6005608FD00D3
:100E26005D08023E840000080A128A11C7210A12D0
:100E36008A1183120313D7005708FA004C30840036
:100E46000A128A1103200A128A110A128A11C92269
:100E56000A128A11831203135D08053E8400831368
:100E66000008D6005608FD005D08043E8400000810
:100E76000A128A11C7210A128A1183120313D70094
:100E86005708FA00423084000A128A1103200A1217
:100E96008A110A128A11C9220A128A1183120313AD
:100EA6005D08073E840083130008D6005608FD003F
:100EB6005D08063E840000080A128A11C7210A123C
:100EC6008A1183120313D7005708FA0047308400AB
:100ED6000A128A1103200A128A110A128A11C922D9
:100EE6000A128A11831203135D080A128A119822C4
:100EF6000A128A117008FF3E831203135D07D6009B
:100F06005608840083130008D7005708FD005D08C3
:100F16000A128A1198220A128A117008FE3E83125A
:100F260003135D07D80058088400831300080A12CB
:100F36008A11C7210A128A1183120313D90059088C
:100F4600FA00433084000A128A1103200A128A1119
:100F56000A128A11C9220A128A1183120313DC01AA
:100F6600EA2F5A08093E5D07D60056088400831307
:100F76000008D7005708FD005A08083E5D07D8004C
:100F86005808840000080A128A11C7210A128A1119
:100F960083120313D9005908FA00443084000A1258
:100FA6008A1103200A128A115C070A128A11C922C1
:100FB6000A128A11023083120313DA070318DB0AB6
:100FC6000030DB070130D6005608DC07EA2F473031
:100FD60084000A128A1103200A128A110A128A113F
:100FE600A8210A128A11831203135C02031CFC2F28
:0A0FF600FD2FB42FFF2FFF2F08007E
:02400E003AFF77
:00000001FF
