:100000000A128A11D42800308A000408840A820760
:100010000034443465346534703461346B342034D6
:100020004334683461346E3464347234613473340C
:1000300065346B3461347234003441347034753457
:10004000723476346534203442346834693464342C
:1000500065340034473472346534673420344734AF
:100060006934723461347234643400344634613437
:100070006C346C3420343234303431343334003422
:100080004534433445343534363432343034003436
:1000900000343034033405340734063432348234C7
:1000A000843450340A34803404340E340A340A342C
:1000B0000A34023401340034103462346434643459
:0A00C000A034663460340A34AA3418
:1000D6008030831203139F00080064008001840AA5
:1000E60004060319003404067128573465346C3449
:1000F60063346F346D3465340A34003482288312D5
:1001060003138C1E87288828822889281A088B289A
:100116000800033083160313850080309F0080306B
:10012600831203139F000800F0009928831203131B
:100136000C1E9E289F289928A02870089900080060
:10014600831603130713871790308312031398003F
:100156002430831603139800813099000800F000BC
:1001660041307002031CB828B928BD287008C93E62
:10017600C028C0287008D03EC02808007E088A0023
:100186007F0882000A128A11C1200A128A11800091
:10019600840A04087D0603190034FF0A0319FE0ABF
:1001A600C5288313A0308400D2300A128A11702029
:1001B6000A128A11DB30FD000030FE007830FF00A5
:1001C600D23084000A128A11C5200A128A118301CC
:1001D6000A128A11602BF1006400831603178C182B
:1001E600F528F628EF28F7287108831203178D00E3
:1001F6003F30F0007008831603178C050C140310AB
:100206000C180314003003180130831203170C086E
:100216000C29080083120313A20022080A128A116D
:10022600B2200A128A1183120313A00003300310AE
:10023600A00DFF3E031D1A290310200DA100210861
:10024600A3007D080A128A11B2200A128A118312AB
:100256000313A0002008A304230831290800403016
:1002660084000A128A1103200A128A110A128A11BC
:10027600EE200A128A11F4007418422943294F29E4
:1002860045300A128A1197200A128A110130F200AB
:100296000030F300582958294E300A128A11972047
:1002A6000A128A11F201F301582908008312031376
:1002B6001F144130F300EE30F200F20B6029F30B0D
:1002C60060296400831203131F1569291F196C29FD
:1002D6006D2969296E291E08F200F3017208F300E0
:1002E600F201831603131E087207F000003003188C
:1002F60001307307F1007F290800FB00FC01FD01B6
:1003060097297C087B07FA007A0884008313000883
:100316000A128A1197200A128A110130FC07031863
:10032600FD0A0030FD0797297B080A128A11DE2193
:100336000A128A1171087D02031DA32970087C0226
:10034600031CA629A7298429A8297C080A128A1130
:1003560097200A128A110800403084000A128A1176
:1003660003200A128A110A128A11EE200A128A1131
:10037600F4004E3084000A128A1103200A128A11F0
:100386007402031CC729C829D4294C300A128A11C1
:1003960097200A128A110130F2000030F300DD299D
:1003A600DD294E300A128A1197200A128A11F201AB
:1003B600F301DD290800F8007808F2007208F90058
:1003C600E529E529790884000130F90783138008B7
:1003D600031DEE29EF29E529F0297808F2000030FF
:1003E600F300F209F309F20A0319F30A7908F40093
:1003F6000030F50072087407F60073080318730AD4
:100406007507F7007608FF3EF00077080318013EEF
:10041600FF3EF1000E2A0800FC00112A831603177E
:100426008C18162A172A112A182A7C0883120317F1
:100436008D007A088C003F30FB007B08831603177B
:100446008C058312031303108B1F2A2A2B2A2C2AAE
:1004560003148B13831603170C1555308D00AA3021
:100466008D008C140C1183120313031C3B2A3C2AA7
:100476003F2A8B173F2A3F2A0800413084000A1280
:100486008A1103200A128A110A128A11EE200A1210
:100496008A11F400433084000A128A1103200A12DA
:1004A6008A110A128A11EE200A128A117406031D95
:1004B6005D2A5E2A6A2A59300A128A1197200A1280
:1004C6008A110130F2000030F300732A732A4E308D
:1004D6000A128A1197200A128A11F201F301732A6D
:1004E600080083120313A200A301A4010A128A11B1
:1004F60081200A128A1183120313A0002008A50086
:100506009F2A2508A00023082207A10021088400AD
:100516002008831380000130A3070318A40A0030C3
:10052600A4070A128A1181200A128A118312031360
:10053600A0002008A5009F2A5B3084000A128A11B9
:1005460003200A128A11A00025082006031DAC2AE2
:10055600AD2A842AAE2A2308A0002008FA004030DB
:1005660084000A128A1103200A128A110A128A11B9
:100576000F220A128A110800FA015A3084000A1260
:100586008A1103200A128A110A128A110F220A12EC
:100596008A11573084000A128A1103200A128A111E
:1005A600FD007D08FA00553084000A128A110320E6
:1005B6000A128A110A128A110F220A128A11583057
:1005C60084000A128A1103200A128A11FD007D088E
:1005D600FA00563084000A128A1103200A128A1180
:1005E6000A128A110F220A128A11533084000A1243
:1005F6008A1103200A128A11FD007D08FA0059307B
:1006060084000A128A1103200A128A110A128A1118
:100616000F220A128A1108000A128A110F240A12DE
:100626008A11831203132108200403191B2B1C2B88
:100636005A2B0A128A1173240A128A11831203137F
:10064600210820040319282B292B5A2B0A128A1158
:100656004A250A128A11831203132108200403195A
:10066600352B362B5A2B0A128A1131260A128A1179
:10067600730872040319402B412B5A2B0A128A1154
:10068600BA250A128A110A128A1140220A128A11FE
:10069600730872040319502B512B5A2B0130831205
:1006A6000313A4000030A5005F2B5F2B5A2B831287
:1006B6000313A401A5015F2B080066308400D23025
:1006C60083120313E2000408E3000930E400620821
:1006D600840083130008E500E20A630884006508C5
:1006E6008000E30AE40B6A2B0A128A11A3200A127D
:1006F6008A110A128A118C200A128A110A128A1188
:10070600BF220A128A1166300A128A1180210A1241
:100716008A118D2B0A128A11DD240A128A111A30C7
:1007260083120313E4005E30E3008630E200E20B3E
:100736009A2BE30B9A2BE40B9A2B64008312031378
:100746008C1EA62BA72B8D2B0A128A11B2230A12F6
:100756008A118D2B8D2B8D2B0A128A110028FA01F6
:10076600413084000A128A1103200A128A110A12E1
:100776008A110F220A128A1130308400A0308312A7
:100786000313AC000408AD003230AE002C08840020
:1007960083130008AF00AC0A2D0884002F088000E0
:1007A600AD0AAE0BC92B30300A128A1174220A1216
:1007B6008A11403084000A128A1103200A128A1113
:1007C6000A128A11EE200A128A110A128A11972039
:1007D6000A128A1130300A128A11CB260A128A119D
:1007E6000A128A110F230A128A118312031325088B
:1007F60024040319FF2B002C072C56300A128A11E9
:1008060097200A128A110E2C4E300A128A1197204E
:100816000A128A110E2C08005C3084000A128A1112
:1008260003200A128A1183120313A2005230840095
:100836000A128A1103200A128A110A128A11EE205C
:100846000A128A11831203132206031D2B2C2C2C49
:10085600672C53300A128A1197200A128A114130E6
:1008660084000A128A1103200A128A110A128A11B6
:10087600EE200A128A1183120313A200523084005A
:100886000A128A1103200A128A110A128A11EE200C
:100896000A128A11831203132207A3002308FA00FF
:1008A600413084000A128A1103200A128A110A12A0
:1008B6008A110F220A128A11013083120313A00033
:1008C6000030A100722C722C4E300A128A11972029
:1008D6000A128A1183120313A001A101722C0800C7
:1008E600513084000A128A1103200A128A110A1250
:1008F6008A11EE200A128A11003A0319832C842CDD
:10090600962C513084000A128A1103200A128A1189
:100916000A128A11EE200A128A11013A031D942C3A
:10092600952CD12C962C52300A128A1197200A1235
:100936008A11413084000A128A1103200A128A1190
:100946000A128A11EE200A128A1183120313A200D8
:10095600513084000A128A1103200A128A110A12DF
:100966008A11EE200A128A11831203132207A300AA
:100976002308FA00413084000A128A1103200A1261
:100986008A110A128A110F220A128A110130831261
:100996000313A0000030A100DC2CDC2C4E300A1220
:1009A6008A1197200A128A1183120313A001A1014A
:1009B600DC2C08000A128A116B200A128A110A120C
:1009C6008A1159210A128A11710883120313A1018F
:1009D600A1077008A001A00754300A128A119720B7
:1009E6000A128A11831203132008FD007D08FA00FB
:1009F6005A3084000A128A1103200A128A110A1236
:100A06008A110F220A128A11831203132108FD008C
:100A16007D08FA005A3084000A128A1103200A124D
:100A26008A11013E0A128A110F220A128A114630D1
:100A36000A128A1197200A128A115A3084000A1261
:100A46008A1103200A128A110A128A11EE200A124A
:100A56008A110A128A1197200A128A1153300A1231
:100A66008A1197200A128A115A3084000A128A11B2
:100A760003200A128A11013E0A128A11EE200A1276
:100A86008A110A128A1197200A128A110800423026
:100A960084000A128A1103200A128A110A128A1184
:100AA600EE200A128A11423084000A128A110320AB
:100AB6000A128A110A128A11EE200A128A11831268
:100AC6000313A2004D3084000A128A1103200A1271
:100AD6008A11A30022082302031C722D732DAE2D4A
:100AE600413084000A128A1103200A128A110A125E
:100AF6008A11EE200A128A1183120313A2004230D1
:100B060084000A128A1103200A128A110A128A1113
:100B1600EE200A128A11831203132207A300230868
:100B2600FA00413084000A128A1103200A128A113F
:100B36000A128A110F220A128A1143300A128A11E6
:100B460097200A128A11013083120313A000003085
:100B5600A100B92DB92D4E300A128A1197200A121A
:100B66008A1183120313A001A101B92D0800413097
:100B760084000A128A1103200A128A110A128A11A3
:100B8600EE200A128A1183120313A0004C3084004F
:100B96000A128A1103200A128A110A128A11EE20F9
:100BA6000A128A11831203132007A1002108FA00F2
:100BB600413084000A128A1103200A128A110A128D
:100BC6008A110F220A128A11FD011E2E413084005D
:100BD6000A128A1103200A128A110A128A11EE20B9
:100BE6000A128A1183120313A000443084000A12E9
:100BF6008A1103200A128A117D070A128A11EE2031
:100C06000A128A11831203132007A1002108FA0091
:100C1600413084000A128A1103200A128A110A122C
:100C26008A110F220A128A11013083120313A000BF
:100C36002008FD071E2E4C3084000A128A1103205C
:100C46000A128A110A128A11EE200A128A117D02EC
:100C5600031C2E2E2F2EE92D302E08004C3084003A
:100C66000A128A1103200A128A110A128A11EE2028
:100C76000A128A110038031D412E422E752E50305D
:100C860084000A128A1103200A128A11F400F5015F
:100C9600F409F509F40A0319F50A403084000A122A
:100CA6008A1103200A128A110A128A11EE200A12E8
:100CB6008A117407F60075080318750AF700770895
:100CC6007604031D672E682E752E44300A128A118B
:100CD60097200A128A110130F2000030F300CA2E62
:100CE600CA2EC12E4C3084000A128A1103200A1221
:100CF6008A110A128A11EE200A128A11F400F501ED
:100D06000130FF000310F40DF50DFF0B852E50305A
:100D160084000A128A1103200A128A11F600F701CA
:100D2600F609F709F60A0319F70A403084000A1291
:100D36008A1103200A128A110A128A11EE200A1257
:100D46008A117607F80077080318770AF9007508FC
:100D56007906031DB02E74087806031DB32EB42E33
:100D6600C12E44300A128A1197200A128A110130C4
:100D7600F2000030F300CA2ECA2EC12E4E300A12DF
:100D86008A1197200A128A11F201F301CA2E08006D
:100D960083120313AB00A801A9010A128A11AF211D
:100DA6000A128A11730872040319DA2EDB2EFF2F3A
:100DB6000A128A1132210A128A117308720403195F
:100DC600E52EE62EFF2F831203132B08013E840027
:100DD60083130008A4002408FD002B0884000008E3
:100DE6000A128A110D210A128A1183120313A50011
:100DF6002508FA00523084000A128A1103200A12CA
:100E06008A110A128A110F220A128A1183120313F7
:100E16002B08033E840083130008A4002408FD0069
:100E26002B08023E840000080A128A110D210A12BC
:100E36008A1183120313A5002508FA005130840095
:100E46000A128A1103200A128A110A128A110F2223
:100E56000A128A11831203132B08053E840083139A
:100E66000008A4002408FD002B08043E84000008A6
:100E76000A128A110D210A128A1183120313A50080
:100E86002508FA00423084000A128A1103200A1249
:100E96008A110A128A110F220A128A118312031367
:100EA6002B08073E840083130008A4002408FD00D5
:100EB6002B08063E840000080A128A110D210A1228
:100EC6008A1183120313A5002508FA004C3084000A
:100ED6000A128A1103200A128A110A128A110F2293
:100EE6000A128A11831203132B080A128A11DE21B1
:100EF6000A128A117008FF3E831203132B07A400FF
:100F06002408840083130008A5002508FD002B088B
:100F16000A128A11DE210A128A117008FE3E831215
:100F260003132B07A60026088400831300080A1261
:100F36008A110D210A128A1183120313A7002708AA
:100F4600FA00433084000A128A1103200A128A1119
:100F56000A128A110F220A128A1183120313AA0196
:100F6600EA2F2808093E2B07A400240884008313CF
:100F76000008A5002508FD002808083E2B07A60046
:100F86002608840000080A128A110D210A128A1105
:100F960083120313A7002708FA00443084000A12BC
:100FA6008A1103200A128A112A070A128A110F22AD
:100FB6000A128A11023083120313A8070318A90A1A
:100FC6000030A9070130A4002408AA07EA2F4C30F4
:100FD60084000A128A1103200A128A110A128A113F
:100FE600EE200A128A11831203132A02031CFC2F15
:0A0FF600FD2FB42FFF2FFF2F08007E
:02400E003AFF77
:00000001FF
