:060000000A128A11122809
:10000800FE00030E83120313E2000408E3000A084B
:10001800E4007F08E5000A128A15292D0A128A11C0
:10002800E42F6A29603084000A128A1146240A12D1
:100038008A110A128A15A8240A128A115C308400CF
:100048000A128A1146240A128A110A128A15A82449
:100058000A128A115D3084000A128A1146240A1293
:100068008A110A128A15A8240A128A118F29603067
:1000780084000A128A1146240A128A110A128A1561
:10008800A8240A128A11573084000A128A114624B9
:100098000A128A110A128A15A8240A128A118F29AB
:1000A800603084000A128A1146240A128A110A1240
:1000B8008A15A8240A128A11583084000A128A1153
:1000C80046240A128A110A128A15A8240A128A11C9
:1000D8008F29603084000A128A1146240A128A1174
:1000E8000A128A15A8240A128A114B3084000A12AF
:1000F8008A1146240A128A110A128A15A8240A1299
:100108008A114C3084000A128A1146240A128A1174
:100118000A128A15A8240A128A118F2960308400CD
:100128000A128A1146240A128A110A128A15A82468
:100138000A128A11473084000A128A1146240A12C8
:100148008A110A128A15A8240A128A118F29603086
:1001580084000A128A1146240A128A110A128A1580
:10016800A8240A128A11483084000A128A114624E7
:100178000A128A110A128A15A8240A128A118F29CA
:10018800603084000A128A1146240A128A110A125F
:100198008A15A8240A128A1152300A128A15A8242C
:1001A8000A128A1154300A128A15A8240A128A11CE
:1001B80043300A128A15A8240A128A118F2960303E
:1001C80084000A128A1146240A128A110A128A1510
:1001D800A8240A128A115C3084000A128A11462463
:1001E8000A128A110A128A15A8240A128A115D3085
:1001F80084000A128A1146240A128A110A128A15E0
:10020800A8240A128A11573084000A128A11462437
:100218000A128A110A128A15A8240A128A11583059
:1002280084000A128A1146240A128A110A128A15AF
:10023800A8240A128A114B3084000A128A11462413
:100248000A128A110A128A15A8240A128A114C3035
:1002580084000A128A1146240A128A110A128A157F
:10026800A8240A128A11473084000A128A114624E7
:100278000A128A110A128A15A8240A128A11483009
:1002880084000A128A1146240A128A110A128A154F
:10029800A8240A128A1152300A128A15A8240A12AE
:1002A8008A1154300A128A15A8240A128A11433076
:1002B8000A128A15A8240A128A118F29A9300A124B
:1002C8008A159D260A128A118F298F2942308400A7
:1002D8000A128A1146240A128A110A128A156325FB
:1002E8000A128A11003A03191628013A03193B2801
:1002F800033A03195428013A03196D28073A0319D8
:100308009228013A0319AB28033A0319C428013A81
:100318000319E3286229080083120313AB00A8011C
:10032800A9010A128A156E260A128A117308720424
:1003380003199F29A029C42A0A128A15C9250A1255
:100348008A11730872040319AA29AB29C42A8312D3
:1003580003132B08013E840083130008A40024081B
:10036800FD002B08840000080A128A15A4250A1229
:100378008A1183120313A5002508FA00543084005B
:100388000A128A1146240A128A110A128A15CC26E0
:100398000A128A11831203132B08033E8400831365
:1003A8000008A4002408FD002B08023E8400000871
:1003B8000A128A15A4250A128A1183120313A500AA
:1003C8002508FA00533084000A128A1146240A12BA
:1003D8008A110A128A15CC260A128A11831203136B
:1003E8002B08053E840083130008A4002408FD00A0
:1003F8002B08043E840000080A128A15A4250A1254
:100408008A1183120313A5002508FA0042308400DC
:100418000A128A1146240A128A110A128A15CC264F
:100428000A128A11831203132B08073E84008313D0
:100438000008A4002408FD002B08063E84000008DC
:100448000A128A15A4250A128A1183120313A50019
:100458002508FA004D3084000A128A1146240A122F
:100468008A110A128A15CC260A128A1183120313DA
:100478002B080A128A15FD260A128A117008FF3EF7
:10048800831203132B07A400240884008313000895
:10049800A5002508FD002B080A128A15FD260A1258
:1004A8008A117008FE3E831203132B07A600260844
:1004B8008400831300080A128A15A4250A128A11D7
:1004C80083120313A7002708FA00433084000A1296
:1004D8008A1146240A128A110A128A15CC260A128F
:1004E8008A1183120313AA01AF2A2808093E2B0791
:1004F800A4002408840083130008A5002508FD0033
:100508002808083E2B07A6002608840000080A12BF
:100518008A15A4250A128A1183120313A700270833
:10052800FA00443084000A128A1146240A128A11F9
:100538002A070A128A15CC260A128A110230831257
:100548000313A8070318A90A0030A9070130A4005B
:100558002408AA07AF2A4D3084000A128A114624BB
:100568000A128A110A128A1563250A128A1183123D
:1005780003132A02031CC12AC22A792AC42AC42ABC
:1005880008004D3084000A128A1146240A128A1182
:100598000A128A1563250A128A110038031DD52A02
:1005A800D62A092B513084000A128A1146240A12CD
:1005B8008A11F400F501F409F509F40A0319F50A9A
:1005C800403084000A128A1146240A128A110A123B
:1005D8008A1563250A128A117407F600750803182C
:1005E800750AF70077087604031DFB2AFC2A092BF5
:1005F80044300A128A15A8240A128A110130F2001E
:100608000030F3005E2B5E2B552B4D3084000A1210
:100618008A1146240A128A110A128A1563250A12B7
:100628008A11F400F5010130FF000310F40DF50DF7
:10063800FF0B192B513084000A128A1146240A1222
:100648008A11F600F701F609F709F60A0319F70AFD
:10065800403084000A128A1146240A128A110A12AA
:100668008A1563250A128A117607F8007708031895
:10067800770AF90075087906031D442B7408780673
:10068800031D472B482B552B44300A128A15A824E2
:100698000A128A110130F2000030F3005E2B5E2B43
:1006A800552B4E300A128A15A8240A128A11F20113
:1006B800F3015E2B0800413084000A128A11462497
:1006C8000A128A110A128A1563250A128A118312DC
:1006D8000313A0004D3084000A128A1146240A121E
:1006E8008A110A128A1563250A128A1183120313C2
:1006F8002007A1002108FA00413084000A128A115B
:1007080046240A128A110A128A15CC260A128A115C
:10071800FD01C32B413084000A128A1146240A12B3
:100728008A110A128A1563250A128A118312031381
:10073800A000443084000A128A1146240A128A1141
:100748007D070A128A1563250A128A118312031378
:100758002007A1002108FA00413084000A128A11FA
:1007680046240A128A110A128A15CC260A128A11FC
:10077800013083120313A0002008FD07C32B4D305E
:1007880084000A128A1146240A128A110A128A154A
:1007980063250A128A117D02031CD32BD42B8E2BBE
:1007A800D52B0800423084000A128A1146240A1206
:1007B8008A110A128A1563250A128A1142308400A6
:1007C8000A128A1146240A128A110A128A15632506
:1007D8000A128A1183120313A2004E3084000A12EF
:1007E8008A1146240A128A11A30022082302031C34
:1007F800FE2BFF2B3A2C413084000A128A11462422
:100808000A128A110A128A1563250A128A1183129A
:100818000313A200423084000A128A1146240A12E5
:100828008A110A128A1563250A128A118312031380
:100838002207A3002308FA00413084000A128A1113
:1008480046240A128A110A128A15CC260A128A111B
:1008580043300A128A15A8240A128A110130831219
:100868000313A0000030A100452C452C4E300A127D
:100878008A15A8240A128A1183120313A001A10160
:10088800452C080004308A000408840A82070034D2
:10089800443465346534703461346B342034433403
:1008A800683461346E34643472346134733465345A
:1008B8006B346134723400344134703475347234BA
:1008C80076346534203442346834693464346534A9
:1008D800003447347234653467342034473469341B
:1008E80072346134723464340034463461346C34A4
:1008F8006C342034323430343134333400344534B9
:1009080043344534353436343234303400340034EA
:1009180030340334053407340634323484348634AE
:1009280050340A348034823404340E340A340A349D
:100938000A3400340234013400341034623464342C
:100948006434A034663460346134FF340A34AA3421
:100958000134483465346C346C346F3400345330AB
:1009680084000A128A1146240A128A110A128A1568
:1009780063250A128A11003A0319C32CC42CD62CF9
:10098800533084000A128A1146240A128A110A1264
:100998008A1563250A128A11013A031DD42CD52C15
:1009A800112DD62C52300A128A15A8240A128A113F
:1009B800413084000A128A1146240A128A110A1246
:1009C8008A1563250A128A1183120313A200533071
:1009D80084000A128A1146240A128A110A128A15F8
:1009E80063250A128A11831203132207A30023081E
:1009F800FA00413084000A128A1146240A128A1128
:100A08000A128A15CC260A128A110130831203139E
:100A1800A0000030A1001C2D1C2D4E300A128A1592
:100A2800A8240A128A1183120313A001A1011C2D04
:100A3800080083160313C2015C3084000A128A116D
:100A480046240A128A110A128A11A9270A128A113F
:100A580083160313C2015D3084000A128A114624EA
:100A68000A128A110A128A11A9270A128A11593000
:100A780084000A128A1146240A128A118316031363
:100A8800C5004508C200573084000A128A1146245E
:100A98000A128A110A128A11A9270A128A115A30CF
:100AA80084000A128A1146240A128A118316031333
:100AB800C5004508C200583084000A128A1146242D
:100AC8000A128A110A128A11A9270A128A115530A4
:100AD80084000A128A1146240A128A118316031303
:100AE800C5004508C2005B3084000A128A114624FA
:100AF8000A128A110A128A11A9270A128A110800F1
:100B0800603084000A128A1146240A128A1183125C
:100B18000313A200543084000A128A1146240A12D0
:100B28008A110A128A1563250A128A11831203137D
:100B38002206031DA02DA12DDC2D53300A128A1583
:100B4800A8240A128A11413084000A128A11462404
:100B58000A128A110A128A1563250A128A11831247
:100B68000313A200543084000A128A1146240A1280
:100B78008A110A128A1563250A128A11831203132D
:100B88002207A3002308FA00413084000A128A11C0
:100B980046240A128A110A128A15CC260A128A11C8
:100BA800013083120313A0000030A100E72DE72DC8
:100BB8004E300A128A15A8240A128A1183120313C6
:100BC800A001A101E72D08008316031388018312F1
:100BD80003138810081108100812881208138813C4
:100BE800623083160313C9006530C800C80BFA2D9C
:100BF800C90BFA2DFF2D30308312031388000A1217
:100C08008A1546250A128A11213083160313C90052
:100C18007630C800C80B0E2EC90B0E2E64000A12BF
:100C28008A1546250A128A11F93083160313C8005B
:100C38006400C80B1C2E202E64000A128A15462553
:100C48000A128A1120308312031388000A128A15A7
:100C580046250A128A1128300A128A1519260A12FC
:100C68008A11F0300A128A1519260A128A110A12F4
:100C78008A15F9240A128A1160300A128A1519266F
:100C88000A128A110800FA01413084000A128A11F6
:100C980046240A128A110A128A15CC260A128A11C7
:100CA80030308400903083120313AC000408AD0088
:100CB8003230AE002C08840083170008AF00AC0A5D
:100CC8002D08840083132F088000AD0AAE0B5E2E1A
:100CD80030300A128A11A5260A128A1130300A12F7
:100CE8008A1190210A128A110A128A1158270A12A7
:100CF8008A1183120313250824040319842E852ED0
:100D0800A42E533084000A128A1146240A128A112A
:100D18000A128A1563250A128A110038031D952EB6
:100D2800962E9C2E0A128A1115200A128A11A42EB8
:100D38000A128A11FF270A128A11A42EA42EA42EA1
:100D4800080083120313A200A301A4010A128A1542
:100D580092240A128A1183120313A0002008A50006
:100D680025080A128A15A8240A128A11DE2E83126F
:100D780003132508A00023082207A10021088400E6
:100D88002008831380000130A3070318A40A003049
:100D9800A4070A128A1592240A128A1183120313CD
:100DA800A0002008A50025080A128A15A8240A12FE
:100DB8008A11DE2E5F3084000A128A1146240A1234
:100DC8008A1183120313A00025082006031DED2EA7
:100DD800EE2EBB2EEF2E2308A0002008FA0040308C
:100DE80084000A128A1146240A128A110A128A15E4
:100DF800CC260A128A110800D4308400A030831649
:100E08000313D0000408D1000930D2005008840030
:100E180083130008D300D00A5108840053088000C7
:100E2800D10AD20B0A2F0A128A15D4240A128A115F
:100E38000A128A159D240A128A110A128A111D257E
:100E48000A128A110A128A11E8250A128A110A124C
:100E58008A15F9240A128A1100300A128A150E25F9
:100E68000A128A1162300A128A1542260A128A1157
:100E7800D4300A128A1595270A128A11432F0A12AA
:100E88008A15CA270A128A11413083160313D10022
:100E9800EE30D000D00B4E2FD10B4E2F6400432FD5
:100EA800432F0A128A1112280A128A1184250A125B
:100EB8008A1183120313210820040319642F652F54
:100EC800A32F0A128A11B3240A128A118312031358
:100ED800210820040319712F722FA32F0A128A11D7
:100EE800D6230A128A118312031321082004031936
:100EF8007E2F7F2FA32F0A128A11C5220A128A1168
:100F0800730872040319892F8A2FA32F0A128A11D2
:100F18005F230A128A110A128A1561270A128A1196
:100F2800730872040319992F9A2FA32F0130831283
:100F38000313A4000030A500A82FA82FA32F831205
:100F48000313A401A501A82F080083160313C400E6
:100F5800AD2F831603178C18B22FB32FAD2FB42FD4
:100F6800831603134408831203178D008316031393
:100F78004208831203178C003F3083160313C30003
:100F88004308831603178C058312031303108B1F62
:100F9800CE2FCF2FD02F03148B13831603170C15C6
:100FA80055308D00AA308D008C140C118312031358
:100FB800031CDF2FE02FE32F8B17E32FE32F08000D
:100FC800831790308400C2300A128A158A240A12C4
:100FD8008A118313C230FD000D30FE008230FF00FD
:100FE800A03084000A128A15EA240A128A118301A1
:080FF8000A128A11002F080003
:10190A008030831203139F00080064008001840A58
:10191A0004060319003404068B2C932C8312031338
:10192A008C1E982C992C932C9A2C1A089C2C080003
:10193A0003308316031385000F309F008030831213
:10194A0003139F000800F000AA2C831203130C1E35
:10195A00AF2CB02CAA2CB12C700899000800F0000A
:10196A0041307002031CBA2CBB2CBF2C7008C93E34
:10197A00C22CC22C7008D03EC22C08008316031356
:10198A00C200C72C83120C1ECB2CCC2CC72CCD2CFE
:10199A00831603134208831203139900080083165F
:1019AA000313071387179030831203139800243008
:1019BA00831603139800813099008B170B178C1626
:1019CA0008007E088A007F0882000A128A15E62427
:1019DA000A128A158000840A04087D060319003455
:1019EA00FF0A0319FE0AEA2C8312031308101030A7
:1019FA000A128A1519260A128A150D30831603133C
:101A0A00C700FB30C600C60B082DC70B082D0D2DCD
:101A1A00080083160313C8008312031308108316E1
:101A2A0003134808803E0A128A1519260A128A15D3
:101A3A00413083160313C700EE30C600C60B232DB0
:101A4A00C70B232D640008008C1E2C2D2D2D392D3B
:101A5A00831603138C1E322D332D392D0A128A1147
:101A6A0047260A128A15392D831203136508FF00C7
:101A7A0064088A0063088400620E8300FE0E7E0EEC
:101A8A0009008312031308150D3083160313C300CC
:101A9A00FB30C200C20B4F2DC30B4F2D542D8312A6
:101AAA00031308110D3083160313C300FB30C20061
:101ABA00C20B5D2DC30B5D2D622D0800F100640081
:101ACA00831603178C186A2D6B2D642D6C2D7108E3
:101ADA00831203178D003F30F00070088316031736
:101AEA008C050C1403100C18031400300318013071
:101AFA00831203170C08812D0800573465346C349F
:101B0A0063346F346D3465340A3400344E346F34C0
:101B1A007434203461342034763461346C3469345A
:101B2A006434203472346534613464342034633468
:101B3A006F346D346D3461346E346434003483121E
:101B4A000313A20022080A128A15B4240A128A155B
:101B5A0083120313A00003300310A00DFF3E031DE0
:101B6A00B12D0310200DA1002108A3007D080A123F
:101B7A008A15B4240A128A1583120313A0002008B6
:101B8A00A3042308C82D0800403084000A128A11D1
:101B9A0046240A128A150A128A1563250A128A1518
:101BAA00F4007418D92DDA2DE62D45300A128A155B
:101BBA00A8240A128A150130F2000030F300EF2D32
:101BCA00EF2D4E300A128A15A8240A128A15F2013C
:101BDA00F301EF2D0800831203131F1441308316FB
:101BEA000313C500EE30C400C40BF92DC50BF92D43
:101BFA006400831203131F15022E1F19052E062EC9
:101C0A00022E072E1E0883160313C400C5014408BA
:101C1A00C500C4011E084407C20000300318013081
:101C2A004507C300182E080083160313C500423067
:101C3A00C400C40B1E2E6400831603134508C40097
:101C4A0004300310C40CFF3E031D262E4408F0394D
:101C5A008312031388000A128A1546250A128A1566
:101C6A00831603134508F0398312031388000A12F6
:101C7A008A1546250A128A15080083160313C70017
:101C8A008312031308145E2E831603134708840075
:101C9A000A128A1146240A128A150A128A15192664
:101CAA000A128A15013083160313C6004608C707AD
:101CBA005E2E83160313470884000A128A114624EB
:101CCA000A128A150038031D6B2E6C2E492E6D2EB2
:101CDA000800403084000A128A1146240A128A1522
:101CEA000A128A1563250A128A15F4004F308400F5
:101CFA000A128A1146240A128A157402031C862EB5
:101D0A00872E932E4C300A128A15A8240A128A1595
:101D1A000130F2000030F3009C2E9C2E4E300A1245
:101D2A008A15A8240A128A15F201F3019C2E0800CA
:101D3A00FB00FC01FD01B42E7C087B07FA007A083F
:101D4A008400831300080A128A15A8240A128A1525
:101D5A000130FC070318FD0A0030FD07B42E7B088A
:101D6A000A128A15FD260A128A1571087D02031DB8
:101D7A00C02E70087C02031CC32EC42EA12EC52EB1
:101D8A007C080A128A15A8240A128A150800FC007F
:101D9A00CE2E831603178C18D32ED42ECE2ED52EE4
:101DAA007C08831203178D007A088C003F30FB00F1
:101DBA007B08831603178C058312031303108B1FEA
:101DCA00E72EE82EE92E03148B13831603170C153E
:101DDA0055308D00AA308D008C140C118312031318
:101DEA00031CF82EF92EFC2E8B17FC2EFC2E080055
:101DFA00F8007808F2007208F900042F042F790815
:101E0A0084000130F90783138008031D0D2F0E2F5C
:101E1A00042F0F2F7808F2000030F300F209F309BB
:101E2A00F20A0319F30A7908F4000030F50072087F
:101E3A007407F60073080318730A7507F700760823
:101E4A00FF3EF00077080318013EFF3EF1002D2FF8
:101E5A00080083160313CA004A08C4004408CB00CA
:101E6A00372F372F4B0884000130CB0783138008A4
:101E7A00031D402F412F372F422F4A08C40000303C
:101E8A00C500C409C509C40A0319C50A4B08C60016
:101E9A000030C70044084607C80045080318450A29
:101EAA004707C9004808FF3EC20049080318013E17
:101EBA00FF3EC300602F0800413084000A128A11D5
:101ECA0046240A128A150A128A1563250A128A15E5
:101EDA00F400433084000A128A1146240A128A1531
:101EEA000A128A1563250A128A157406031D7E2FA3
:101EFA007F2F8B2F59300A128A15A8240A128A15A5
:101F0A000130F2000030F300942F942F4E300A1261
:101F1A008A15A8240A128A15F201F301942F0800DF
:101F2A0083160313CD00CE01CF01B02F4E084D0703
:101F3A00CC004C088400831300080A128A15C324B3
:101F4A000A128A15013083160313CE070318CF0A23
:101F5A000030CF07B02F4D080A128A152E270A1211
:101F6A008A158316031343084F02031DBE2F420826
:101F7A004E02031CC12FC22F9B2FC32F4E080A12D9
:101F8A008A15C3240A128A1508000A128A1585249A
:101F9A000A128A150A128A15F0250A128A15831658
:101FAA0003134308C801C8074208C701C7074708FF
:101FBA00C6004608C2005D3084000A128A1146240F
:101FCA000A128A150A128A11A9270A128A15831671
:101FDA0003134808C6004608C2005C3084000A128F
:101FEA008A1146240A128A15013E0A128A11A92761
:061FFA000A128A1508001E
:02400E003AFF77
:00000001FF
