:100000000A128A1112280800FE00030E831203133D
:10001000E2000408E3000A08E4007F08E5000A1291
:100020008A15C42F0A128A15A92F83120313AB0055
:10003000A801A9010A128A1132270A128A1173082B
:10004000720403192428252849290A128A118A27AB
:100050000A128A117308720403192F2830284929BB
:10006000831203132B08013E840083130008A400AD
:100070002408FD002B08840000080A128A11B12709
:100080000A128A1183120313A5002508FA005330BF
:1000900084000A128A110B240A128A110A128A1188
:1000A00001270A128A11831203132B08033E8400CE
:1000B00083130008A4002408FD002B08023E8400DE
:1000C00000080A128A11B1270A128A118312031337
:1000D000A5002508FA00523084000A128A110B2468
:1000E0000A128A110A128A1101270A128A1183122E
:1000F00003132B08053E840083130008A400240882
:10010000FD002B08043E840000080A128A11B12762
:100110000A128A1183120313A5002508FA0042303F
:1001200084000A128A110B240A128A110A128A11F7
:1001300001270A128A11831203132B08073E840039
:1001400083130008A4002408FD002B08063E840049
:1001500000080A128A11B1270A128A1183120313A6
:10016000A5002508FA004C3084000A128A110B24DD
:100170000A128A110A128A1101270A128A1183129D
:1001800003132B080A128A11D0260A128A1170084A
:10019000FF3E831203132B07A4002408840083135B
:1001A0000008A5002508FD002B080A128A11D02698
:1001B0000A128A117008FE3E831203132B07A60051
:1001C00026088400831300080A128A11B1270A1234
:1001D0008A1183120313A7002708FA004330840012
:1001E0000A128A110B240A128A110A128A11012793
:1001F0000A128A1183120313AA0134292808093E1E
:100200002B07A4002408840083130008A5002508F8
:10021000FD002808083E2B07A600260884000008D9
:100220000A128A11B1270A128A1183120313A70036
:100230002708FA00443084000A128A110B240A129B
:100240008A112A070A128A1101270A128A1102301A
:1002500083120313A8070318A90A0030A907013065
:10026000A4002408AA0734294C3084000A128A11F9
:100270000B240A128A110A128A15E1270A128A111E
:10028000831203132A02031C46294729FE28492901
:10029000492908004C3084000A128A110B240A12E2
:1002A0008A110A128A15E1270A128A110038031DE1
:1002B0005A295B298E29503084000A128A110B2496
:1002C0000A128A11F400F501F409F509F40A031978
:1002D000F50A403084000A128A110B240A128A118E
:1002E0000A128A15E1270A128A117407F6007508A6
:1002F0000318750AF70077087604031D8029812901
:100300008E2944300A128A1526270A128A110130D2
:10031000F2000030F300E329E329DA294C308400AD
:100320000A128A110B240A128A110A128A15E1276D
:100330000A128A11F400F5010130FF000310F40DD8
:10034000F50DFF0B9E29503084000A128A110B24F0
:100350000A128A11F600F701F609F709F60A0319DD
:10036000F70A403084000A128A110B240A128A11FB
:100370000A128A15E1270A128A117607F80077080F
:100380000318770AF90075087906031DC92974084E
:100390007806031DCC29CD29DA2944300A128A15A2
:1003A00026270A128A110130F2000030F300E329F7
:1003B000E329DA294E300A128A1526270A128A11F1
:1003C000F201F301E3290800413084000A128A1186
:1003D0000B240A128A110A128A15E1270A128A11BD
:1003E00083120313A0004C3084000A128A110B24DC
:1003F0000A128A110A128A15E1270A128A11831237
:1004000003132007A1002108FA00413084000A12DA
:100410008A110B240A128A110A128A1101270A1260
:100420008A11FD01482A413084000A128A110B24E6
:100430000A128A110A128A15E1270A128A118312F6
:100440000313A000443084000A128A110B240A12FC
:100450008A117D070A128A15E1270A128A1183126E
:1004600003132007A1002108FA00413084000A127A
:100470008A110B240A128A110A128A1101270A1200
:100480008A11013083120313A0002008FD07482AB7
:100490004C3084000A128A110B240A128A110A12A3
:1004A0008A15E1270A128A117D02031C582A592A4B
:1004B000132A5A2A0800423084000A128A110B2497
:1004C0000A128A110A128A15E1270A128A11423089
:1004D00084000A128A110B240A128A110A128A1540
:1004E000E1270A128A1183120313A2004D308400FF
:1004F0000A128A110B240A128A11A300220823026D
:10050000031C832A842ABF2A413084000A128A11DC
:100510000B240A128A110A128A15E1270A128A117B
:1005200083120313A200423084000A128A110B24A2
:100530000A128A110A128A15E1270A128A118312F5
:1005400003132207A3002308FA00413084000A1293
:100550008A110B240A128A110A128A1101270A121F
:100560008A1143300A128A1526270A128A1101308D
:1005700083120313A0000030A100CA2ACA2A4E30F9
:100580000A128A1526270A128A1183120313A00160
:10059000A101CA2A0800FA01413084000A128A1116
:1005A0000B240A128A110A128A1101270A128A11CF
:1005B00030308400903083120313AC000408AD0087
:1005C0003230AE002C08840083170008AF00AC0A5C
:1005D0002D08840083132F088000AD0AAE0BE22A99
:1005E00030300A128A11D5240A128A114030840050
:1005F0000A128A110B240A128A110A128A15E1279B
:100600000A128A110A128A1526270A128A11303014
:100610000A128A1115200A128A110A128A1130252B
:100620000A128A1183120313250824040319192BB3
:100630001A2B392B523084000A128A110B240A1209
:100640008A110A128A15E1270A128A110038031D3D
:100650002A2B2B2B312B0A128A11D6270A128A1128
:10066000392B0A128A1103200A128A11392B392BCD
:10067000392B0800523084000A128A110B240A1206
:100680008A110A128A15E1270A128A11003A0319FF
:100690004A2B4B2B5D2B523084000A128A110B24FB
:1006A0000A128A110A128A15E1270A128A11013ADE
:1006B000031D5B2B5C2B982B5D2B52300A128A1585
:1006C00026270A128A11413084000A128A110B244B
:1006D0000A128A110A128A15E1270A128A11831254
:1006E0000313A200523084000A128A110B240A124A
:1006F0008A110A128A15E1270A128A11831203133A
:100700002207A3002308FA00413084000A128A114C
:100710000B240A128A110A128A1101270A128A115D
:10072000013083120313A0000030A100A32BA32BE0
:100730004E300A128A1526270A128A1183120313D1
:10074000A001A101A32B080083160313A0015B30B5
:1007500084000A128A110B240A128A110A128A11C1
:10076000C3250A128A1183160313A0015C3084008A
:100770000A128A110B240A128A110A128A11C3253D
:100780000A128A11583084000A128A110B240A12A4
:100790008A1183160313A3002308A0005630840097
:1007A0000A128A110B240A128A110A128A11C3250D
:1007B0000A128A11593084000A128A110B240A1273
:1007C0008A1183160313A3002308A0005730840066
:1007D0000A128A110B240A128A110A128A11C325DD
:1007E0000A128A11543084000A128A110B240A1248
:1007F0008A1183160313A3002308A0005A30840033
:100800000A128A110B240A128A110A128A11C325AC
:100810000A128A11080004308A000408840A820738
:100820000034443465346534703461346B342034BE
:100830004334683461346E346434723461347334F4
:1008400065346B346134723400344134703475343F
:100850007234763465342034423468346934643414
:100860006534003447347234653467342034473497
:10087000693472346134723464340034463461341F
:100880006C346C342034323430343134333400340A
:10089000453443344534353436343234303400341E
:1008A00000343034033405340734063432348234AF
:1008B000843450340A34803404340E340A340A3414
:1008C0000A340034023401340034103462346434A5
:1008D0006434A034663460346134FF340A34AA349A
:1008E00001345F3084000A128A110B240A128A1123
:1008F00083120313A200533084000A128A110B24BE
:100900000A128A110A128A15E1270A128A11831221
:1009100003132206031D8D2C8E2CC92C53300A1272
:100920008A1526270A128A11413084000A128A1178
:100930000B240A128A110A128A15E1270A128A1157
:1009400083120313A200533084000A128A110B246D
:100950000A128A110A128A15E1270A128A118312D1
:1009600003132207A3002308FA00413084000A126F
:100970008A110B240A128A110A128A1101270A12FB
:100980008A11013083120313A0000030A100D42C7F
:10099000D42C4E300A128A1526270A128A11831285
:1009A0000313A001A101D42C080083120313A20099
:1009B000A301A4010A128A1577270A128A11831249
:1009C0000313A0002008A50025080A128A1526276F
:1009D0000A128A110E2D831203132508A000230882
:1009E0002207A10021088400200883138000013021
:1009F000A3070318A40A0030A4070A128A15772750
:100A00000A128A1183120313A0002008A5002508EA
:100A10000A128A1526270A128A110E2D5E308400CA
:100A20000A128A110B240A128A1183120313A000DE
:100A300025082006031D1D2D1E2DEB2C1F2D230820
:100A4000A0002008FA00403084000A128A110B240A
:100A50000A128A110A128A1101270A128A11080041
:100A60000A128A1171240A128A11831203132108AF
:100A7000200403193C2D3D2D7B2D0A128A113A23A7
:100A80000A128A1183120313210820040319492D25
:100A90004A2D7B2D0A128A115B220A128A118312B7
:100AA0000313210820040319562D572D7B2D0A12FC
:100AB0008A114A210A128A11730872040319612DDE
:100AC000622D7B2D0A128A11E4210A128A110A1260
:100AD0008A1169260A128A11730872040319712D8A
:100AE000722D7B2D013083120313A4000030A5006A
:100AF000802D802D7B2D83120313A401A501802D51
:100B00000800B2308400BB3083160313AE00040823
:100B1000AF000930B0002E08840083130008B10034
:100B2000AE0A2F08840031088000AF0AB00B8B2D6D
:100B30000A128A1552270A128A110A128A151B27CD
:100B40000A128A110A128A11A4230A128A11B230D7
:100B50000A128A1134260A128A11AE2D0A128A113B
:100B6000FE250A128A11413083160313AF00EE30BE
:100B7000AE00AE0BB92DAF0BB92D6400AE2DAE2D6E
:100B80000A128A11122883160313A200C72D831696
:100B900003178C18CC2DCD2DC72DCE2D8316031306
:100BA0002208831203178D00831603132008831273
:100BB00003178C003F3083160313A100210883160E
:100BC00003178C058312031303108B1FE82DE92DE7
:100BD000EA2D03148B13831603170C1555308D0063
:100BE000AA308D008C140C1183120313031CF92DF1
:100BF000FA2DFD2D8B17FD2DFD2D08000A128A15EB
:100C00000E270A128A110A128A1161270A128A1102
:100C1000831603132108A601A6072008A501A5072E
:100C20002508A4002408A0005C3084000A128A1160
:100C30000B240A128A110A128A11C3250A128A1178
:100C4000831603132608A4002408A0005B30840048
:100C50000A128A110B240A128A11013E0A128A1101
:100C6000C3250A128A11080083160313AB00AC01D6
:100C7000AD014F2E2C082B07AA002A0884008313ED
:100C800000080A128A1541270A128A1101308316B8
:100C90000313AC070318AD0A0030AD074F2E2B0825
:100CA0000A128A119D260A128A118316031321083B
:100CB0002D02031D5D2E20082C02031C602E612EC8
:100CC0003A2E622E2C080A128A1541270A128A111E
:100CD0000800413084000A128A110B240A128A117A
:100CE0000A128A15E1270A128A11F400433084009F
:100CF0000A128A110B240A128A110A128A15E12794
:100D00000A128A117406031D862E872E932E5930DF
:100D10000A128A1526270A128A110130F2000030C1
:100D2000F3009C2E9C2E4E300A128A1526270A129A
:100D30008A11F201F3019C2E080083160313A80008
:100D40002808A2002208A900A62EA62E29088400A1
:100D50000130A90783138008031DAF2EB02EA62EE5
:100D6000B12E2808A2000030A300A209A309A20AFC
:100D70000319A30A2908A4000030A50022082407AB
:100D8000A60023080318230A2507A7002608FF3E0C
:100D9000A00027080318013EFF3EA100CF2E080047
:100DA000F8007808F2007208F900D72ED72E7908DB
:100DB00084000130F90783138008031DE02EE12E23
:100DC000D72EE22E7808F2000030F300F209F30982
:100DD000F20A0319F30A7908F4000030F5007208EA
:100DE0007407F60073080318730A7507F70076088E
:100DF000FF3EF00077080318013EFF3EF100002F90
:100E00000800FC00032F831603178C18082F092FE6
:100E1000032F0A2F7C08831203178D007A088C0099
:100E20003F30FB007B08831603178C0583120313E6
:100E300003108B1F1C2F1D2F1E2F03148B138316C3
:100E400003170C1555308D00AA308D008C140C1131
:100E500083120313031C2D2F2E2F312F8B17312FAD
:100E6000312F0800403084000A128A110B240A1224
:100E70008A110A128A15E1270A128A11F4004E30EB
:100E800084000A128A110B240A128A117402031CAC
:100E90004A2F4B2F572F4C300A128A1526270A1239
:100EA0008A110130F2000030F300602F602F4E30C5
:100EB0000A128A1526270A128A11F201F301602FFD
:100EC0000800831203131F14413083160313A30079
:100ED000EE30A200A20B6A2FA30B6A2F64008312CC
:100EE00003131F15732F1F19762F772F732F782F4A
:100EF0001E0883160313A200A3012208A300A20167
:100F00001E082207A0000030031801302307A100AB
:100F1000892F0800403084000A128A110B240A121B
:100F20008A110A128A15E1270A128A11F40074182C
:100F30009A2F9B2FA72F45300A128A1526270A12AF
:100F40008A110130F2000030F300B02FB02F4E3084
:100F50000A128A1526270A128A11F201F301B02F0C
:100F6000080083120313A20022080A128A153227EE
:100F70000A128A1183120313A00003300310A00D7C
:100F8000FF3E031DBE2F0310200DA1002108A3006A
:100F90007D080A128A1532270A128A118312031356
:100FA000A0002008A3042308D52F0800E62F543002
:100FB0000A128A1526270A128A11F62F4E300A12B3
:100FC0008A1526270A128A11F62FF62F523084002E
:100FD0000A128A110B240A128A110A128A15E127B1
:100FE0000A128A11003A0319D72FDE2F080057344E
:100FF00065346C3463346F346D3465340A340034D2
:101E1C008030831203139F00080064008001840A41
:101E2C000406031900340406142F0330831603131D
:101E3C00850080309F008030831203139F000800C0
:101E4C00F000282F831203130C1E2D2F2E2F282F5A
:101E5C002F2F700899000800F00041307002031C0D
:101E6C00382F392F3D2F7008C93E402F402F700856
:101E7C00D03E402F080083160313A000452F831279
:101E8C000C1E492F4A2F452F4B2F83160313200866
:101E9C008312031399000800831603130713871783
:101EAC009030831203139800243083160313980088
:101EBC00813099008B170B178C1608007E088A004E
:101ECC007F0882000A128A1564270A128A1580007C
:101EDC00840A04087D0603190034FF0A0319FE0A5C
:101EEC00682F83120313981C7C2F7D2F842F0A12CA
:101EFC008A158E270A128A15842F842F83120313B6
:101F0C008C1E892F8A2F842F8B2F1A088D2F080057
:101F1C0080308312031398004130F100EE30F00052
:101F2C00F00B962FF10B962F640090308312031355
:101F3C0098004130F100EE30F000F00BA32FF10BC4
:101F4C00A32F64000800831790308400C2300A125B
:101F5C008A1513270A128A158313C430FD00073023
:101F6C00FE00F730FF00BB3084000A128A15682788
:101F7C000A128A1583010A128A11812D8C1EC72F11
:101F8C00C82FD42F831603138C1ECD2FCE2FD42FF6
:101F9C000A128A11CB220A128A15D42F8312031328
:101FAC006508FF0064088A0063088400620E8300E1
:101FBC00FE0E7E0E0900F1006400831603178C18C8
:101FCC00E82FE92FE22FEA2F7108831203178D00F7
:101FDC003F30F0007008831603178C050C140310A7
:101FEC000C180314003003180130831203170C086B
:041FFC00FF2F0800AB
:02400E003AFF77
:00000001FF
