:100000000A128A119E2800308A000408840A820796
:100010000034443465346534703461346B342034D6
:100020004334683461346E3464347234613473340C
:1000300065346B3461347234003441347034753457
:10004000723476346534203442346834693464342C
:1000500065340034473472346534673420344734AF
:100060006934723461347234643400344634613437
:100070006C346C3420343234303431343334003422
:100080004534433445343534363432343034003436
:1000900000343034033405340734063432348234C7
:1000A000843450340A34803404340E340A340A342C
:1000B0000A340034023401340034103462346434BD
:1000C0006434A0346634603461340A34AA340134B0
:1000D0008030831203139F00080083160313071355
:1000E000871790308312031398002430831603136C
:1000F0009800813099000800F00041307002031C24
:100100008228832887287008C93E8A288A28700890
:10011000D03E8A2808007E088A007F0882000A12E2
:100120008A118B200A128A118000840A04087D0635
:1001300003190034FF0A0319FE0A8F288313A03025
:100140008400D2300A128A15CD270A128A11DB30B8
:10015000FD000F30FE00D530FF00D23084000A12BF
:100160008A118F200A128A1183010A128A11312BF7
:10017000F1006400831603178C18BF28C028B92823
:10018000C1287108831203178D003F30F0007008FA
:10019000831603178C050C1403100C18031400307D
:1001A00003180130831203170C08D6280800E7282B
:1001B00054300A128A15F4270A128A11F7284E3091
:1001C0000A128A15F4270A128A11F728F7285230E2
:1001D00084000A128A1103200A128A110A128A1153
:1001E000B8200A128A11003A0319D828DF2808001B
:1001F00083120313A20022080A128A117C200A1219
:100200008A1183120313A00003300310A00DFF3ED8
:10021000031D05290310200DA1002108A3007D085E
:100220000A128A117C200A128A1183120313A00079
:100230002008A30423081C290800403084000A1267
:100240008A1103200A128A110A128A11B8200A128E
:100250008A11F40074182D292E293A2945300A12E2
:100260008A15F4270A128A110130F2000030F300D7
:10027000432943294E300A128A15F4270A128A119B
:10028000F201F30143290800831203131F144130C4
:10029000F300EE30F200F20B4B29F30B4B29640014
:1002A000831203131F1554291F195729582954293C
:1002B00059291E08F200F3017208F300F2018316B7
:1002C00003131E087207F000003003180130730793
:1002D000F1006A290800FB00FC01FD0182297C086D
:1002E0007B07FA007A088400831300080A128A1533
:1002F000F4270A128A110130FC070318FD0A0030A6
:10030000FD0782297B080A128A11C9210A128A1163
:1003100071087D02031D8E2970087C02031C91293F
:1003200092296F2993297C080A128A15F4270A1248
:100330008A110800403084000A128A1103200A1230
:100340008A110A128A11B8200A128A11F4004E305A
:1003500084000A128A1103200A128A117402031CF3
:10036000B229B329BF294C300A128A15F4270A1280
:100370008A110130F2000030F300C829C8294E303C
:100380000A128A15F4270A128A11F201F301C82908
:100390000800F8007808F2007208F900D029D02986
:1003A000790884000130F90783138008031DD929D7
:1003B000DA29D029DB297808F2000030F300F209AD
:1003C000F309F20A0319F30A7908F4000030F50082
:1003D00072087407F60073080318730A7507F700AC
:1003E0007608FF3EF00077080318013EFF3EF1005B
:1003F000F9290800FC00FC29831603178C18012A30
:10040000022AFC29032A7C08831203178D007A082C
:100410008C003F30FB007B08831603178C0583128A
:10042000031303108B1F152A162A172A03148B1384
:10043000831603170C1555308D00AA308D008C14CF
:100440000C1183120313031C262A272A2A2A8B172E
:100450002A2A2A2A0800413084000A128A1103201D
:100460000A128A110A128A11B8200A128A11F4009B
:10047000433084000A128A1103200A128A110A12D8
:100480008A11B8200A128A117406031D482A492AC3
:10049000552A59300A128A15F4270A128A11013096
:1004A000F2000030F3005E2A5E2A4E300A128A15EE
:1004B000F4270A128A11F201F3015E2A08000A12D7
:1004C0008A1168200A128A110A128A1144210A121A
:1004D0008A11710883120313A101A1077008A001FA
:1004E000A0072008FD007D08FA005C3084000A1295
:1004F0008A1103200A128A110A128A11FA210A1299
:100500008A11831203132108FD007D08FA005B3075
:1005100084000A128A1103200A128A11013E0A126B
:100520008A11FA210A128A11080083120313A20009
:10053000A301A4010A128A15DE270A128A11831266
:100540000313A0002008A500C02A2508A000230846
:100550002207A100210884002008831380000130B5
:10056000A3070318A40A0030A4070A128A15DE277D
:100570000A128A1183120313A0002008A500C02AC2
:100580005D3084000A128A1103200A128A11A00029
:1005900025082006031DCD2ACE2AA52ACF2A230806
:1005A000A0002008FA00403084000A128A110320BB
:1005B0000A128A110A128A11FA210A128A110800F3
:1005C0000A128A11E2230A128A11831203132108E4
:1005D00020040319EC2AED2A2B2B0A128A11462437
:1005E0000A128A1183120313210820040319F92A1D
:1005F000FA2A2B2B0A128A11B0240A128A118312AA
:100600000313210820040319062B072B2B2B0A1296
:100610008A1197250A128A11730872040319112B83
:10062000122B2B2B0A128A1120250A128A110A1268
:100630008A112B220A128A11730872040319212BC2
:10064000222B2B2B013083120313A4000030A500B2
:10065000302B302B2B2B83120313A401A501302B3D
:10066000080066308400D23083120313E2000408CD
:10067000E3000930E4006208840083130008E50009
:10068000E20A6308840065088000E30AE40B3B2B60
:100690000A128A116D200A128A110A128A15E92794
:1006A0000A128A110A128A1185230A128A116630E7
:1006B0000A128A116B210A128A115E2B0A128A1100
:1006C0005F220A128A11831203138C1E682B692B76
:1006D000752B50300A128A15F4270A128A110A1251
:1006E0008A1131260A128A11752B413083120313A5
:1006F000E300EE30E200E20B7B2BE30B7B2B64008C
:100700005E2B5E2B0A128A110028FA015B308400EE
:100710000A128A1103200A128A110A128A11FA2176
:100720000A128A11FA015C3084000A128A1103202D
:100730000A128A110A128A11FA210A128A115830F1
:1007400084000A128A1103200A128A11FD007D0812
:10075000FA00563084000A128A1103200A128A1104
:100760000A128A11FA210A128A11593084000A12D7
:100770008A1103200A128A11FD007D08FA00573001
:1007800084000A128A1103200A128A110A128A119D
:10079000FA210A128A11543084000A128A110320A5
:1007A0000A128A11FD007D08FA005A3084000A12EC
:1007B0008A1103200A128A110A128A11FA210A12D6
:1007C0008A1108005E3084000A128A1103200A127E
:1007D0008A1183120313A200533084000A128A1173
:1007E00003200A128A110A128A11B8200A128A11E9
:1007F000831203132206031DFE2BFF2B3A2C5330CA
:100800000A128A15F4270A128A11413084000A124A
:100810008A1103200A128A110A128A11B8200A12B8
:100820008A1183120313A200533084000A128A1122
:1008300003200A128A110A128A11B8200A128A1198
:10084000831203132207A3002308FA004130840017
:100850000A128A1103200A128A110A128A11FA2135
:100860000A128A11013083120313A0000030A10084
:10087000452C452C4E300A128A15F4270A128A118B
:1008800083120313A001A101452C080052308400FB
:100890000A128A1103200A128A110A128A11B82038
:1008A0000A128A11003A0319562C572C692C52301F
:1008B00084000A128A1103200A128A110A128A116C
:1008C000B8200A128A11013A031D672C682CA42C47
:1008D000692C52300A128A15F4270A128A11413003
:1008E00084000A128A1103200A128A110A128A113C
:1008F000B8200A128A1183120313A2005230840016
:100900000A128A1103200A128A110A128A11B820C7
:100910000A128A11831203132207A3002308FA0084
:10092000413084000A128A1103200A128A110A1225
:100930008A11FA210A128A11013083120313A000CE
:100940000030A100AF2CAF2C4E300A128A15F427CC
:100950000A128A1183120313A001A101AF2C08000F
:10096000423084000A128A1103200A128A110A12E4
:100970008A11B8200A128A11423084000A128A11A0
:1009800003200A128A110A128A11B8200A128A1147
:1009900083120313A2004D3084000A128A1103202F
:1009A0000A128A11A30022082302031CD82CD92C76
:1009B000142D413084000A128A1103200A128A1170
:1009C0000A128A11B8200A128A1183120313A20094
:1009D000423084000A128A1103200A128A110A1274
:1009E0008A11B8200A128A11831203132207A30066
:1009F0002308FA00413084000A128A1103200A12E7
:100A00008A110A128A11FA210A128A1143300A1233
:100A10008A15F4270A128A11013083120313A000E9
:100A20000030A1001F2D1F2D4E300A128A15F42709
:100A30000A128A1183120313A001A1011F2D0800BD
:100A4000413084000A128A1103200A128A110A1204
:100A50008A11B8200A128A1183120313A0004C30A5
:100A600084000A128A1103200A128A110A128A11BA
:100A7000B8200A128A11831203132007A10021084B
:100A8000FA00413084000A128A1103200A128A11E6
:100A90000A128A11FA210A128A11FD01842D4130AD
:100AA00084000A128A1103200A128A110A128A117A
:100AB000B8200A128A1183120313A0004430840064
:100AC0000A128A1103200A128A117D070A128A115A
:100AD000B8200A128A11831203132007A1002108EB
:100AE000FA00413084000A128A1103200A128A1186
:100AF0000A128A11FA210A128A1101308312031391
:100B0000A0002008FD07842D4C3084000A128A11B1
:100B100003200A128A110A128A11B8200A128A11B5
:100B20007D02031C942D952D4F2D962D08004C30E1
:100B300084000A128A1103200A128A110A128A11E9
:100B4000B8200A128A110038031DA72DA82DDB2D0D
:100B5000503084000A128A1103200A128A11F4000C
:100B6000F501F409F509F40A0319F50A4030840087
:100B70000A128A1103200A128A110A128A11B82055
:100B80000A128A117407F60075080318750AF7002F
:100B900077087604031DCD2DCE2DDB2D44300A12AF
:100BA0008A15F4270A128A110130F2000030F3008E
:100BB000302E302E272E4C3084000A128A1103204A
:100BC0000A128A110A128A11B8200A128A11F40034
:100BD000F5010130FF000310F40DF50DFF0BEB2DB7
:100BE000503084000A128A1103200A128A11F6007A
:100BF000F701F609F709F60A0319F70A40308400ED
:100C00000A128A1103200A128A110A128A11B820C4
:100C10000A128A117607F80077080318770AF90094
:100C200075087906031D162E74087806031D192E03
:100C30001A2E272E44300A128A15F4270A128A1116
:100C40000130F2000030F300302E302E272E4E30CF
:100C50000A128A15F4270A128A11F201F301302EC2
:100C60000800322E831203138C1E372E382E322E9C
:100C7000392EFA01413084000A128A1103200A1227
:100C80008A110A128A11FA210A128A1148300A12AC
:100C90008A15F4270A128A1130308400A03083129A
:100CA0000313AC000408AD003230AE002C08840001
:100CB00083130008AF00AC0A2D0884002F088000C1
:100CC000AD0AAE0B562E48300A128A15F4270A12C6
:100CD0008A1130300A128A1195220A128A1148307C
:100CE0000A128A15F4270A128A11403084000A1267
:100CF0008A1103200A128A110A128A11B8200A12D4
:100D00008A110A128A15F4270A128A1148300A1227
:100D10008A15F4270A128A1130300A128A11CB265A
:100D20000A128A1148300A128A15F4270A128A1107
:100D30000A128A11E0220A128A118312031325086B
:100D400024040319A42EA52ECA2E523084000A12A0
:100D50008A1103200A128A110A128A11B8200A1273
:100D60008A110038031DB52EB62EC22E48300A1245
:100D70008A15F4270A128A110A128A11D7200A1238
:100D80008A11CA2E0A128A15CC270A128A11CA2E73
:100D9000CA2ECA2E080083120313AB00A801A901B2
:100DA0000A128A119A210A128A117308720403190D
:100DB000DA2EDB2EFF2F0A128A111D210A128A1148
:100DC000730872040319E52EE62EFF2F8312031316
:100DD0002B08013E840083130008A4002408FD00B2
:100DE0002B08840000080A128A11F8200A128A11BE
:100DF00083120313A5002508FA00533084000A1259
:100E00008A1103200A128A110A128A11FA210A127F
:100E10008A11831203132B08033E840083130008F6
:100E2000A4002408FD002B08023E840000080A12DA
:100E30008A11F8200A128A1183120313A5002508CB
:100E4000FA00523084000A128A1103200A128A1111
:100E50000A128A11FA210A128A11831203132B082B
:100E6000053E840083130008A4002408FD002B081D
:100E7000043E840000080A128A11F8200A128A111E
:100E800083120313A5002508FA00423084000A12D9
:100E90008A1103200A128A110A128A11FA210A12EF
:100EA0008A11831203132B08073E84008313000862
:100EB000A4002408FD002B08063E840000080A1246
:100EC0008A11F8200A128A1183120313A50025083B
:100ED000FA004C3084000A128A1103200A128A1187
:100EE0000A128A11FA210A128A11831203132B089B
:100EF0000A128A11C9210A128A117008FF3E831250
:100F000003132B07A4002408840083130008A50002
:100F10002508FD002B080A128A11C9210A128A111C
:100F20007008FE3E831203132B07A60026088400D8
:100F3000831300080A128A11F8200A128A118312F8
:100F40000313A7002708FA00433084000A128A110D
:100F500003200A128A110A128A11FA210A128A112E
:100F600083120313AA01EA2F2808093E2B07A400C5
:100F70002408840083130008A5002508FD00280824
:100F8000083E2B07A6002608840000080A128A11D2
:100F9000F8200A128A1183120313A7002708FA0007
:100FA000443084000A128A1103200A128A112A0787
:100FB0000A128A11FA210A128A11023083120313CB
:100FC000A8070318A90A0030A9070130A4002408C3
:100FD000AA07EA2F4C3084000A128A1103200A1251
:100FE0008A110A128A11B8200A128A118312031375
:100FF0002A02031CFC2FFD2FB42FFF2FFF2F080008
:101F9800080064008001840A04060319003404065A
:101FA800CE2F573465346C3463346F346D346534F4
:101FB8000A340034DF2F831203138C1EE42FE52F1D
:101FC800DF2FE62F1A08E82F0800033083160313C3
:101FD800850080309F008030831203139F00080023
:101FE800F000F62F831203130C1EFB2FFC2FF62F85
:081FF800FD2F7008990008009C
:02400E003AFF77
:00000001FF
